:100000000C9485000C94A2000C94A2000C94A20005
:100010000C94A4000C94A2000C94A2000C94A200D6
:100020000C94A2000C94A2000C94A2000C94A200C8
:100030000C94A2000C94A2000C94A2000C94A200B8
:100040000C94A2000C94A2000C94A2000C94A200A8
:100050000C94A2008E2F0C2E5C2E842E8B2E8E2EB6
:10006000942EC02E0C2F302F792F7E2F8B2FEB2D1F
:10007000BB2F0A3011301F3026302E3036303D3045
:10008000443047304D305030573060306530853027
:100090007E308B306B2E4430622E923005A84CCDD2
:1000A000B2D44EB93836A9020C50B9918688083CB2
:1000B000A6AAAA2ABE000000803F0664EC1B3C04EE
:1000C000BC163E3BE5B93CC93C37C29E5A3D66046E
:1000D00098083EEA69AAAA3E000000803F0706058C
:1000E000040302010010203040506070717273747C
:1000F0007576776757473727170403122130405129
:100100006273746556473726150011241FBECFE56C
:10011000D8E0DEBFCDBF11E0A0E6B0E0EAE3FEE646
:1001200002C005900D92A633B107D9F711E0A6E3FE
:10013000B1E001C01D92A23CB107E1F70E94EE02BE
:100140000C941B370C9400001F920F920FB60F9265
:1001500011242F933F938F939F93EF93FF9315BA9F
:10016000C39A20E030E0E091C101F0E083E0EE0FBF
:10017000FF1F8A95E1F7E20FF31FE358FE4F8081DE
:100180008BBB98B3822F8F5F8770987F892B88BB3A
:100190002F5F3F4F2830310531F7C3982091C101BF
:1001A00081E090E002C0880F991F2A95E2F785BB95
:1001B0008091C1018F5F8093C1018091C10188301E
:1001C00011F41092C101FF91EF919F918F913F9196
:1001D0002F910F900FBE0F901F9018959FEF9ABB15
:1001E0008FEE87BB94BB8FE181BB1BBA15BA80E150
:1001F00088BB80E682BB8AE083BD85B5856085BD0E
:1002000085B5886085BD14BC89B7806889BF10BC7E
:1002100089E189B986E880BD88E18AB91CB808956A
:100220001F9340E050E020E030E014E004C040E0E4
:1002300050E020E030E082B3812782BB5F9BFECF9D
:100240008CB190E08F3F910531F45F9BFECF8CB174
:1002500090E0009761F3FA0193E0EE0FFF1F9A958B
:10026000E1F7E20FF31FE35CFE4F80832730310597
:1002700049F44730510519F40E948A0DD8CF4F5FD9
:100280005F4FD7CF2F5F3F4FD6CFCF93DF93C09134
:100290007200D0917300939A2196CE010E94753618
:1002A00088EE93E00E94B50B9398929A859B1AC0B2
:1002B000B49B1BC0869B1CC0809172009091730000
:1002C00088539F4FC817D90780F488EE93E00E94A7
:1002D000B50B9298939A859B05C0B49B06C08699EE
:1002E000DBCF06C022E030E005C021E030E002C0F4
:1002F00023E030E0C901DF91CF9108951F9382B3CD
:100300001092C0011092BF0110E1A4C010923C01F4
:1003100010923B018FC082B3812782BB1092BE0135
:100320001092BD0113C06091BF017091C001809116
:100330003B0190913C010E94DB058091BD019091B1
:10034000BE0101969093BE018093BD014091BD0115
:100350005091BE014830510534F31092390110928A
:100360003801E0917000F0917100DF01AA0FBB1F0E
:100370006091720070917300409136015091370185
:1003800020E030E024C06F5F7F4FB49B16C1859999
:1003900009C07093730060937200509337014093CB
:1003A0003601A6C0869B03C080E090E00AC070932F
:1003B0007300609372005093370140933601ACC0D4
:1003C0000196AC018E179F07DCF32F5F3F4F2A1772
:1003D0003B07CCF270937300609372005093370127
:1003E0004093360130933901209338011092BE01B9
:1003F0001092BD010FC06091BF017091C0010E94B9
:100400008E058091BD019091BE0101969093BE0131
:100410008093BD014091BD015091BE0180913B018F
:1004200090913C014830510534F3019690933C0182
:1004300080933B0180913B0190913C0108970CF423
:100440006ACF8091BF019091C00101969093C00145
:100450008093BF018091BF019091C00108970CF477
:1004600055CF1092BE011092BD0110E19DC01092B7
:10047000C0011092BF0188C082B3812782BB109255
:100480003C0110923B016EC04091BD015091BE01F4
:100490000E94DB05109239011092380180917000A2
:1004A0009091710064E070E00E94F835AB01E0913A
:1004B0007200F0917300609136017091370120E075
:1004C00030E038C03196B49909C0F0937300E093DE
:1004D0007200709337016093360177C085990FC021
:1004E000F0937300E09372007093370160933601CC
:1004F000309339012093380122E030E06CC0869BB4
:1005000003C080E090E010C0F0937300E0937200AD
:10051000709337016093360130933901209338018D
:1005200023E030E058C00196BC0184179507DCF346
:100530002F5F3F4F241735072CF2F0937300E093A1
:100540007200709337016093360130933901209324
:10055000380180913B0190913C01019690933C01C0
:1005600080933B0180913B0190913C016091BF01E0
:100570007091C001883091050CF486CF6F5F7F4F7A
:100580007093C0016093BF018091BF019091C00141
:1005900008970CF471CF8091BD019091BE01019636
:1005A0009093BE018093BD018091BD019091BE01E9
:1005B00008970CF45CCF94980FC07093730060930D
:1005C00072005093370140933601309339012093E4
:1005D000380121E030E0C9011F9108957F928F9288
:1005E0009F92AF92BF92CF92DF92EF92FF920F93C2
:1005F0001F93DF93CF93CDB7DEB7C15CD0400FB66A
:10060000F894DEBF0FBECDBF0E94EE0078940E942A
:100610007E0181E08093C1010E94450183309105F4
:1006200009F02DC280E00E94DF0880E690E00E9481
:10063000FA1812BA969A80E00E94DF085E010894C8
:10064000A11CB11C54E0752E41E4C42ED12CCC0E5B
:10065000DD1E31E8832E912C8C0E9D1E80E00E94C1
:10066000DF0886E690E00E94FA1801E010E06FC013
:1006700010923C0110923B012FC01092C0011092C9
:10068000BF011BC00E94703669E070E00E94F8351F
:100690008C016091BF017091C00180913B019091EC
:1006A0003C01A8010E94940D8091BF019091C0016E
:1006B00001969093C0018093BF018091BF019091FA
:1006C000C0010897FCF280913B0190913C0101969A
:1006D00090933C0180933B0180913B0190913C01C0
:1006E00008975CF21092BE011092BD012AC084E608
:1006F00090E00E94B50B8AE76FEF7FEF0E94C40B7A
:1007000081E090E00AC0879B03C000E21EE402C0C3
:100710000F5F1F4F81E29EE4869B8C018EE40032C6
:1007200018078CF3879904C08EE401321807FCF295
:100730008091BD019091BE0101969093BE0180937E
:10074000BD018091BD019091BE0107975CF3869930
:100750008FCF80E00E94DF0888E690E00E94FA18C0
:100760009EC00E94703669E070E00E94F835AC01CE
:1007700080E090E060E070E00E94B40D0E9470366E
:1007800069E070E00E94F835AC0180E090E064E040
:1007900070E00E94B40D0E94703669E070E00E9423
:1007A000F835AC0182E090E062E070E00E94B40DA8
:1007B0000E94703669E070E00E94F835AC0182E07A
:1007C00090E066E070E00E94B40D0E94703669E02F
:1007D00070E00E94F835AC0184E090E060E070E0E9
:1007E0000E94B40D0E94703669E070E00E94F835F6
:1007F000AC0184E090E064E070E00E94B40D0E94DF
:10080000703669E070E00E94F835AC0186E090E057
:1008100062E070E00E94B40D0E94703669E070E002
:100820000E94F8358C0186E090E066E070E0A80157
:100830000E94B40D1092BE011092BD012AC084E640
:1008400090E00E94B50B8AE76FEF7FEF0E94C40B28
:1008500081E090E00AC0879B03C000E21EE402C072
:100860000F5F1F4F81E29EE4869B8C018EE4003275
:1008700018078CF3879904C08EE401321807FCF244
:100880008091BD019091BE0101969093BE0180932D
:10089000BD018091BD019091BE0107975CF38699DF
:1008A00060CF80E00E94DF088AE690E00E94FA189C
:1008B00001E010E047C010923C0110923B011AC0C9
:1008C0000E94703669E070E00E94F835BC018093A8
:1008D000BF017093C00180913B0190913C010E9447
:1008E000F30D80913B0190913C01019690933C0166
:1008F00080933B0180913B0190913C01089704F368
:100900001BC084E690E00E94B50B8AE76FEF7FEF93
:100910000E94C40B81E090E00AC0879B03C000E204
:100920001EE402C00F5F1F4F81E29EE4869B8C0194
:100930008EE4003218078CF3879904C08EE40132EC
:100940001807FCF28699B7CF80E00E94DF088CE69A
:1009500090E00E94FA185EC000E010E0F501E00FA0
:10096000F11F70820E947036F601E00FF11F68E0FF
:1009700070E00E94F83580830F5F1F4F003411052F
:1009800069F700E010E0C501B6014AE70E94B5151D
:1009900086E990E00E94B50B0F5F1F4F08301105EC
:1009A00091F734C000E010E0C501B6014AE70E94AB
:1009B000B51586E990E00E94B50B0F5F1F4F083018
:1009C000110591F702C0869B02C0879BFCCFEE24E5
:1009D000FF240E9470368C010E9470369C01C80171
:1009E00060E470E00E94F835F601E80FF91FC901D4
:1009F00068E070E00E94F83580830894E11CF11CE7
:100A000080E2E816F10429F7869B02C0879BCACFD3
:100A1000869B02C08699A0CF80E00E94DF088EE608
:100A200090E00E94FA18C4010E94B13200E024C094
:100A3000869B02C0879BFCCF0E94703666E070E008
:100A40000E94F835182F282F30E0802F90E0822761
:100A5000932786709070892B39F4C901039666E05C
:100A600070E00E94F835182FC401602F412F28EC48
:100A700030E00E946423012F869BF0CDDBCF8230D3
:100A8000910531F480E00E94DF0894980E941001E3
:100A900001E010E0C8010E94CC2D0F5F1F4F033210
:100AA0001105B4F7F7CF089778F477FD0DC06830DB
:100AB000710554F457FD08C090E0483051050CF022
:100AC00091E081E0982701C090E0892F0895FF927E
:100AD0000F931F93CF93DF93F82E8B01EA010E94AF
:100AE00053058823A9F0FE0183E0EE0FFF1F8A95CE
:100AF000E1F7E00FF11FE35CFE4F208181E090E021
:100B000002C0880F991FFA94E2F7809582238083B0
:100B1000DF91CF911F910F91FF900895FF920F9356
:100B20001F93CF93DF93F82E8B01EA010E945305A8
:100B30008823A9F0FE0193E0EE0FFF1F9A95E1F7DD
:100B4000E00FF11FE358FE4F208181E090E002C0EA
:100B5000880F991FFA94E2F7809582238083DF91B2
:100B6000CF911F910F91FF900895FF920F931F93C4
:100B7000CF93DF93F82E8B01EA010E94530588235F
:100B8000A1F0FE0123E0EE0FFF1F2A95E1F7E00F31
:100B9000F11FE35CFE4F208181E090E002C0880FEE
:100BA000991FFA94E2F7282B2083DF91CF911F91B0
:100BB0000F91FF900895FF920F931F93CF93DF93B0
:100BC000F82E8B01EA010E9453058823A1F0FE0153
:100BD00033E0EE0FFF1F3A95E1F7E00FF11FE35806
:100BE000FE4F208181E090E002C0880F991FFA94A7
:100BF000E2F7282B2083DF91CF911F910F91FF9077
:100C000008952F923F924F925F926F927F928F92B0
:100C10009F92AF92BF92CF92DF92EF92FF920F938B
:100C20001F93DF93CF93CDB7DEB72C970FB6F89411
:100C3000DEBF0FBECDBF281B390B061B170BE41AF6
:100C4000F50A37FD05C0A1E0B0E0BA87A98704C066
:100C5000EFEFFFEFFA87E9873C872B8737FF05C067
:100C6000309521953F4F3C872B8717FD05C021E02C
:100C700030E038872F8304C0AFEFBFEFB887AF8372
:100C800017FF03C0109501951F4FF7FC05C0E1E069
:100C9000F0E0FE83ED8304C02FEF3FEF3E832D8312
:100CA000F7FE04C0F094E194F108F394AB85BC85A1
:100CB000AA0FBB1FBC83AB83F801EE0FFF1FFA83A3
:100CC000E9831701220C331C2B853C852017310743
:100CD0000CF444C02E153F05DCF17F01E21AF30A43
:100CE0008101021B130B3C014A015B014424552482
:100CF00028C0C301B501A4010E94DB051E141F0416
:100D000044F48F819885A80EB91EAB81BC81EA1A84
:100D1000FB0A1016110644F4ED81FE818E0E9F1E13
:100D20002B813C81021B130B89819A81E80EF91EED
:100D3000020D131D0894411C511CA985BA856A0E29
:100D40007B1E6301EB85FC854E165F0694F290C016
:100D50002B853C85021713070CF448C00E151F05A0
:100D60000CF444C0EB80FC80E01AF10AD101A01B16
:100D7000B10BBC87AB873B014A016C01442455246D
:100D800030C0C601B301A4010E94DB051E141F047C
:100D900044F4E985FA85CE0EDF1E29813A81E21AF4
:100DA000F30A8B859C851816190654F4AD81BE8113
:100DB0008A0E9B1EE981FA818E1B9F0B9C878B8775
:100DC0002B813C81E20EF31E8B859C85820D931D49
:100DD0009C878B870894411C511CAF81B8856A0E93
:100DE0007B1E53014016510664F242C009811A81EC
:100DF0000E191F09EB81FC81EE19FF09FC87EB87B7
:100E00003A015B016C01442455242EC0C601B50192
:100E1000A3010E94DB051016110634F42F813885DA
:100E2000A20EB31E021913098B859C85181619068C
:100E300044F4A985BA85CA0EDB1E821993099C87E2
:100E40008B87E981FA810E0F1F1F2B853C858B81D3
:100E50009C81280F391F3C872B870894411C511C0B
:100E6000AD81BE816A0E7B1E43014E145F0474F295
:100E7000C601B501A4010E94DB052C960FB6F894BB
:100E8000DEBF0FBECDBFCF91DF911F910F91FF90BD
:100E9000EF90DF90CF90BF90AF909F908F907F901A
:100EA0006F905F904F903F902F900895FF920F9317
:100EB0001F93CF93DF93F82E8B01EA010E94530515
:100EC000882389F033E0CC0FDD1F3A95E1F7C00F9E
:100ED000D11FC358DE4F888190E002C09595879559
:100EE000FA94E2F78170DF91CF911F910F91FF90FB
:100EF00008952130310519F40E94DB0508950E9400
:100F00008E050895FF920F931F93CF93DF93F82ED2
:100F10008B01EA010E9453058823A1F0FE0143E002
:100F2000EE0FFF1F4A95E1F7E00FF11FE358FE4F68
:100F3000208181E090E002C0880F991FFA94E2F7C7
:100F400028272083DF91CF911F910F91FF90089563
:100F5000CF93DF93FC01DA01E901681779071CF4EC
:100F6000CB01BF01FC01ED93FC9379836883DF9192
:100F7000CF9108958830910598F420E030E053E057
:100F8000880F991F5A95E1F74FEFFC01E20FF31F0D
:100F9000E358FE4F40832F5F3F4F28303105A9F7BC
:100FA00008958830910590F420E030E063E0880FE8
:100FB000991F6A95E1F7FC01E20FF31FE358FE4F1A
:100FC00010822F5F3F4F28303105A9F708959C010B
:100FD0008830910530F581E090E002C0880F991FBC
:100FE0002A95E2F7982F40E050E012C0FB01E20F93
:100FF000F31FE358FE4F8081892B80832F5F3F4F83
:101000002830310599F74F5F5F4F4830510549F05F
:1010100020E030E0BA01E3E0660F771FEA95E1F7E0
:10102000E5CF08959C018830910538F581E090E086
:1010300002C0880F991F2A95E2F7982F909540E0FB
:1010400050E012C0FB01E20FF31FE358FE4F808116
:10105000892380832F5F3F4F2830310599F74F5FF9
:101060005F4F4830510549F020E030E0BA01F3E02D
:10107000660F771FFA95E1F7E5CF0895883091055F
:1010800098F420E030E04FEFF901A3E0EE0FFF1FEE
:10109000AA95E1F7E80FF91FE358FE4F40832F5F51
:1010A0003F4F2830310581F708958830910590F43D
:1010B00020E030E0F901B3E0EE0FFF1FBA95E1F751
:1010C000E80FF91FE358FE4F10822F5F3F4F283083
:1010D000310581F70895893749F08A37F9F0883763
:1010E000A1F5862F90E00E94E707089570E0683030
:1010F000710558F520E030E08FEFF90193E0EE0F35
:10110000FF1F9A95E1F7E60FF71FE358FE4F808324
:101110002F5F3F4F2830310581F7089570E0683028
:10112000710598F420E030E083E0660F771F8A9520
:10113000E1F78FEFFB01E20FF31FE358FE4F8083CF
:101140002F5F3F4F28303105A9F70895893749F0BF
:101150008A37F1F0883791F5862F90E00E941208C7
:10116000089570E06830710548F520E030E0F9013D
:1011700053E0EE0FFF1F5A95E1F7E60FF71FE35814
:10118000FE4F10822F5F3F4F2830310581F70895C1
:1011900070E06830710590F420E030E043E0660FC5
:1011A000771F4A95E1F7FB01E20FF31FE358FE4F6B
:1011B00010822F5F3F4F28303105A9F7089540E096
:1011C00050E010C0FB01E20FF31FE358FE4F808395
:1011D0002F5F3F4F28303105A9F74F5F5F4F4830F1
:1011E000510549F020E030E0BA01E3E0660F771FD7
:1011F000EA95E1F7E7CF089540E050E010C0FB0129
:10120000E20FF31FE35CFE4F80832F5F3F4F2830D8
:101210003105A9F74F5F5F4F4830510549F020E095
:1012200030E0BA01F3E0660F771FFA95E1F7E7CFF8
:101230000895EF92FF920F931F93CF93DF93DC01FA
:10124000EB01F9012817390714F4D901FC010C1737
:101250001D071CF4CE01E8018C01E416F5061CF410
:10126000CA01A7017C0131968FEF90E09C0102C07A
:10127000220F331FEA95E2F7209502C0880F991FCD
:10128000AA95E2F728230EC0FB01EA0FFB1FE358E3
:10129000FE4F8081822B808311960A171B07A4F7CB
:1012A0004F5F5F4FE416F50644F0DE01BA0183E0BC
:1012B000660F771F8A95E1F7F0CFDF91CF911F91ED
:1012C0000F91FF90EF900895CF92DF92EF92FF92EF
:1012D0000F931F93CF93DF93DC01F9012817390790
:1012E00014F4D901FC01061717071CF4CB01B8014F
:1012F0008C01E416F5061CF4CA01A7017C0181E00B
:1013000090E09C010E2E02C0220F331F0A94E2F7D8
:101310000A2E02C0880F991F0A94E2F7C22EC82A2B
:1013200031968FEF90E09C0102C0220F331FEA95A7
:10133000E2F7D22ED09402C0880F991FAA95E2F747
:10134000D8229A0121C0A617B70749F0A017B10704
:1013500031F02417350719F02E153F0539F4FE0139
:10136000EA0FFB1FE358FE4FD08208C0FE01EA0FD0
:10137000FB1FE358FE4F80818C29808311960A174A
:101380001B070CF72F5F3F4FE216F30644F0DB011B
:10139000E90193E0CC0FDD1F9A95E1F7F0CFDF91E3
:1013A000CF911F910F91FF90EF90DF90CF90089514
:1013B0006F927F928F929F92AF92BF92CF92DF9265
:1013C000EF92FF920F931F93CF93DF933C014B015A
:1013D0005A0169012817390714F439016C010815FD
:1013E00019051CF4C40148018C01EA14FB041CF427
:1013F000C50157017C010894C11CD11C8FEF90E0FE
:101400009C010C2C02C0220F331F0A94E2F70894AF
:10141000C108D1082095062C02C0880F991F0A9494
:10142000E2F72823D50143E0AA0FBB1F4A95E1F755
:10143000FD01E80DF91DE358FE4F2083A00FB11FF9
:10144000A358BE4F2C93D70133E0AA0FBB1F3A9588
:10145000E1F7FD01E80DF91DE358FE4F2083A00FD1
:10146000B11FA358BE4F2C93E40115C0C301BE01A8
:10147000A5010E94DB05C301BE01A7010E94DB0597
:10148000C601BE01A5010E94DB05C601BE01A70180
:101490000E94DB0521960C171D0744F7E50115C0D6
:1014A000C301B401AE010E94DB05C301B801AE0166
:1014B0000E94DB05C601B401AE010E94DB05C60136
:1014C000B801AE010E94DB052196EC16FD0644F73B
:1014D000DF91CF911F910F91FF90EF90DF90CF9010
:1014E000BF90AF909F908F907F906F9008956F5FA7
:1014F0007F4F2FEF30E0A90102C0440F551F6A95BE
:10150000E2F7BA01609502C0220F331F8A95E2F715
:10151000862F82230895482F282F30E082958695C4
:101520008270942F991F9927991F892B942F969534
:10153000969596959470892B46954870842B220F2A
:10154000331F922F9071892B220F331F220F331FCD
:10155000922F9072892B220F331F220F331F922F4D
:101560009074892B220F331F220F331F822B089573
:101570002F923F924F925F926F927F928F929F92A3
:10158000AF92BF92CF92DF92EF92FF920F931F9391
:10159000DF93CF93CDB7DEB766970FB6F894DEBF73
:1015A0000FBECDBF2C015B014A011901670128174D
:1015B00039073CF412012901C8018B015C016A0161
:1015C00047013101641875080A151B0544F4B5017B
:1015D000601B710B882777FD8095982F07C00A192B
:1015E0001B09B801882777FD8095982F0E94EE335C
:1015F0007B018C01B301882777FD8095982F0E948D
:10160000EE339B01AC01C801B7010E9453336D83D7
:101610007E838F839887310164187508C814D904B4
:1016200044F4B4016C197D09882777FD8095982FC3
:1016300007C0C818D908B601882777FD8095982F6C
:101640000E94EE337B018C01B301882777FD8095E2
:10165000982F0E94EE339B01AC01C801B7010E9494
:10166000533369837A838B839C83642CC501AA27B7
:1016700097FDA095BA2F8D879E87AF87B88BC40141
:10168000AA2797FDA095BA2F898B9A8BAB8BBC8B21
:101690004BC06D897E8964197509882777FD80950F
:1016A000982F0E94EE335B016C016D817E818F81EA
:1016B0009885A60195010E94DB347B018C016D8524
:1016C0007E858F8598890E94EE339B01AC01C8010D
:1016D000B7010E94E8320E94C03369877A878B87FE
:1016E0009C8769817A818B819C81A60195010E94EA
:1016F000DB347B018C0169897A898B899C890E9402
:10170000EE339B01AC01C801B7010E94E8320E9490
:10171000C0339B01AC018D899E89698570E0422FA1
:1017200050E00E94DB056394A62DB0E0BE8BAD8B2C
:101730002A163B060CF0ADCF66960FB6F894DEBFC6
:101740000FBECDBFCF91DF911F910F91FF90EF9012
:10175000DF90CF90BF90AF909F908F907F906F90D1
:101760005F904F903F902F9008950BC020E00000B5
:10177000000000000000000000002F5F2A35B9F7CC
:101780000197009799F708952F923F924F925F9299
:101790006F927F929F92AF92BF92CF92DF92EF9221
:1017A000FF920F931F93CF93DF93982E5B01CC246E
:1017B000DD24A7E02A2E312C8FEFA8168FEFB80674
:1017C00011F4760103C07101EC18FD0800E010E08F
:1017D000270108944108510837010894611C711CC5
:1017E0003AC08FEFA8168FEFB80611F4C30101C0FD
:1017F000C201AC018AE7981649F4C801BE010E94F3
:101800005607282FC801BE01A70119C089E79816FD
:1018100051F4C801BA01AE010E945607282FC80131
:10182000B701AE010CC088E7981661F4CA01BE0189
:10183000A8010E945607282FC701BE01A80130E069
:101840000E9479072196C830D10559F60F5F1F4FC6
:101850000830110519F0C0E0D0E0C3CF0894C11CD6
:10186000D11C88E0C816D10409F0A6CF8FEFA816C6
:101870008FEFB80619F0EE24FF2403C0F7E0EF2E37
:10188000F12C00E010E01FC08AE7981621F4C8018F
:10189000BE01A7010DC089E7981621F4C801B70160
:1018A000AE0106C088E7981629F4C701BE01A80159
:1018B0000E948E052196C830D10531F70F5F1F4F6A
:1018C0000830110519F0C0E0D0E0DECFDF91CF91F4
:1018D0001F910F91FF90EF90DF90CF90BF90AF904E
:1018E0009F907F906F905F904F903F902F900895C2
:1018F000DF93CF93CDB7DEB7C054D0400FB6F89486
:10190000DEBF0FBECDBFDE011196EDE7F1E080E452
:1019100001900D928150E1F740E050E0BE016F5F11
:101920007F4F18C08C91F90193E0EE0FFF1F9A953D
:10193000E1F7E40FF51FE358FE4F8083189621501E
:1019400030408FEF2F3F380769F74F5F5F4F4830C8
:10195000510531F0DB01A40FB51F27E030E0E2CFE5
:10196000C05CDF4F0FB6F894DEBF0FBECDBFCF9186
:10197000DF9108958F929F92AF92BF92CF92DF92A4
:10198000EF92FF920F931F93DF93CF93CDB7DEB704
:10199000C054D0400FB6F894DEBF0FBECDBFDE01FD
:1019A0001196EDE7F1E080E401900D928150E1F7AE
:1019B0000E94DF08EE24FF244E010894811C911C34
:1019C00017C0F60181916F010E948B0AF501E00FAB
:1019D000F11FE358FE4F80830F5F1F4F0830110542
:1019E00081F70894E11CF11CF8E0EF16F10469F0AE
:1019F000C70123E0880F991F2A95E1F76401C80EFB
:101A0000D91E00E010E05C01DCCFC05CDF4F0FB6F8
:101A1000F894DEBF0FBECDBFCF91DF911F910F9124
:101A2000FF90EF90DF90CF90BF90AF909F908F90FE
:101A300008958F929F92AF92BF92CF92DF92EF92D2
:101A4000FF920F931F93DF93CF93CDB7DEB7C054B0
:101A5000D0400FB6F894DEBF0FBECDBFDE011196A9
:101A6000EDE7F1E080E401900D928150E1F70E94F2
:101A7000DF08AA24BB244E010894811C911C2AC0B3
:101A8000F701808190E0002E02C0959587950A9419
:101A9000E2F780FF05C0C801B601A5010E94DB0581
:101AA0000F5F1F4F0830110559F70894E11CF11C16
:101AB0000894C108D108FFEFCF16FFEFDF0619F039
:101AC00000E010E0DDCF0894A11CB11C88E0A8164E
:101AD000B10461F0750143E0EE0CFF1C4A95E1F79B
:101AE000E80CF91C37E0C32ED12CEACFC05CDF4FE5
:101AF0000FB6F894DEBF0FBECDBFCF91DF911F911F
:101B00000F91FF90EF90DF90CF90BF90AF909F909C
:101B10008F900895ADE7B1E0EDE3F1E080E401904E
:101B20000D928150E1F70895CF92DF92EF92FF92EC
:101B30000F931F93CF93DF936C017B018A01C0E069
:101B4000D0E006C0C601B701AE010E94DB052196B8
:101B5000C017D107BCF3DF91CF911F910F91FF9078
:101B6000EF90DF90CF9008958F929F92AF92BF92A7
:101B7000CF92DF92EF92FF920F931F93CF93DF9359
:101B80007C018B014A01C0E0D0E05C010894A11CFB
:101B9000B11C6B010894C11CD11C15C0C701B80150
:101BA000AE010E94DB05C501B801AE010E94DB0554
:101BB000C701B601AE010E94DB05C501B601AE0149
:101BC0000E94DB052196C815D90544F3DF91CF911A
:101BD0001F910F91FF90EF90DF90CF90BF90AF904B
:101BE0009F908F900895CF92DF92EF92FF920F9384
:101BF0001F93CF93DF936C017B0100E010E00DC0D9
:101C0000C0E0D0E0CE01B601A8010E94DB0521961C
:101C1000C830D105B9F70F5F1F4F0E151F0584F3AC
:101C2000DF91CF911F910F91FF90EF90DF90CF90B8
:101C30000895CF93DF93EC01DC0120E030E014C085
:101C4000A830B10574F4283031055CF4FD0183E05F
:101C5000EE0FFF1F8A95E1F7E20FF31FE358FE4FE7
:101C600060832F5F3F4F1197C217D3074CF7CA010C
:101C70000E94B50BCE01DF91CF9108950F931F9372
:101C8000CF93DF938B01EA01892B51F080E190E043
:101C9000BE01A8010E94190E019797FFF9CF0AC053
:101CA00080E090E0BE01A8010E94190E01968031EB
:101CB0009105C4F3DF91CF911F910F9108957F9209
:101CC0008F929F92AF92BF92CF92DF92EF92FF924C
:101CD0000F931F93CF93DF93E82EF62E742E690196
:101CE000C0E0D0E027E0822E912C98E0A92EB12C04
:101CF00087E0781669F484010C1B1D0BA5014C1BB1
:101D00005D0B8E2D90E06F2D70E00E948E050AC055
:101D1000AE01415050408E2D90E06F2D70E00E943A
:101D20008E058E018E2D90E06F2D70E0A8010E942F
:101D3000DB05C6010E94B50B2196C830D105C1F65E
:101D4000DF91CF911F910F91FF90EF90DF90CF9097
:101D5000BF90AF909F908F907F900895CF92DF9229
:101D6000EF92FF920F931F93CF93DF936C017B0150
:101D70000894E108F1088B0102501040080F191F68
:101D800025C0C0E0D0E0F8018081682F70E06F705E
:101D9000707082958F7090E0AE010E945607282FD8
:101DA000F8018181682F70E06F70707082958F707C
:101DB00090E0AE0130E00E9479072196C830D1054D
:101DC00011F70894E108F108015010401E141F0497
:101DD000C4F2C0E0D0E0F6018081682F70E06F703F
:101DE000707082958F7090E0AE010E948E052196F2
:101DF000C830D10581F7DF91CF911F910F91FF90EE
:101E0000EF90DF90CF9008955F926F927F928F92C4
:101E10009F92AF92BF92CF92DF92EF92FF920F9379
:101E20001F93DF93CF93CDB7DEB76C970FB6F894BF
:101E3000DEBF0FBECDBF4C01562E3A0180E05E01E1
:101E40000894A11CB11CB5014CE150E00E94512D39
:101E5000CC24DD243FC0852D6F2D4E2D0E946B2D8F
:101E6000882341F080E090E067E070E0A8010E94E4
:101E7000DB0507C080E090E067E070E0A8010E9409
:101E80008E050F5F1F4FFA948FEFF81621F7C401EC
:101E90000E94B50BC5016CE170E00E94AE0EE394A8
:101EA00088E0E81629F000E010E037E0F32ED3CF09
:101EB00000E010E0C4010E94B50BC5016CE170E0C8
:101EC0000E94AE0E0F5F1F4F0431110599F7089461
:101ED000C11CD11CC614D70414F4EE24E4CF00E0D6
:101EE00010E07E010894E11CF11CC4010E94B50BB6
:101EF000C7016CE170E00E94AE0E0F5F1F4F0A3009
:101F0000110599F76C960FB6F894DEBF0FBECDBFE2
:101F1000CF91DF911F910F91FF90EF90DF90CF90C5
:101F2000BF90AF909F908F907F906F905F9008953B
:101F30002F923F924F925F926F927F928F929F92D9
:101F4000AF92BF92CF92DF92EF92FF920F931F93C7
:101F5000DF93CF93CDB7DEB7A1970FB6F894DEBF6E
:101F60000FBECDBF3C016B0156E0852E912C8C0E2F
:101F70009D1E80E0B4014CE150E00E94512D1E01F5
:101F80000894211C311C240143C0B1010E94A82DDA
:101F90007101F701808100E010E0A82EBB2487E0EA
:101FA00090E0801B910B950102C0359527958A958D
:101FB000E2F720FF08C080E090E067E070E0A80151
:101FC0000E94DB0507C080E090E067E070E0A801B8
:101FD0000E948E050F5F1F4F0830110501F7C401E5
:101FE0006CE170E00E94AE0EC3010E94B50B089434
:101FF000E11CF11CE414F50461F60894C11CD11C29
:10200000C2016CE170E00E94AE0EC3010E94B50BEC
:10201000F6018081882309F0B8CF00E010E046E0A7
:10202000E42EF12CEC0EFD1EC7016CE170E00E9465
:10203000AE0EC3010E94B50B0F5F1F4F0C3111058F
:1020400099F7A1960FB6F894DEBF0FBECDBFCF9122
:10205000DF911F910F91FF90EF90DF90CF90BF9095
:10206000AF909F908F907F906F905F904F903F9038
:102070002F9008959F92AF92BF92CF92DF92EF92EE
:10208000FF920F931F93DF93CF93CDB7DEB7609787
:102090000FB6F894DEBF0FBECDBF5C016B0181E0CF
:1020A0008E010F5F1F4FB80140E150E00E94512D9B
:1020B000EE24FF24902E012F15C0A7014770507009
:1020C00084E090E060E070E00E94DB05C6010E94C1
:1020D000B50B892D902F6CE170E00E94AE0E089434
:1020E000E11CF11CEA14FB0444F360960FB6F8946B
:1020F000DEBF0FBECDBFCF91DF911F910F91FF903B
:10210000EF90DF90CF90BF90AF909F9008957F9217
:102110008F929F92AF92BF92CF92DF92EF92FF92F7
:102120000F931F93DF93CF93CDB7DEB76C970FB6A6
:10213000F894DEBF0FBECDBF4C015B0180E08E0185
:102140000F5F1F4FB8014CE150E00E94512D74E029
:10215000E72EF12CCC24DD24702E012F2AC00E9402
:1021600070360894E108F10863E070E00E94F835E9
:10217000E80EF91E88E0E816F10424F067E0E62E88
:10218000F12C04C0F7FE02C0EE24FF24872D902F0F
:102190006CE170E00E94AE0E80E090E067E070E0DD
:1021A000A7010E94DB05C5010E94B50B0894C11C64
:1021B000D11CC814D9049CF26C960FB6F894DEBFFB
:1021C0000FBECDBFCF91DF911F910F91FF90EF9088
:1021D000DF90CF90BF90AF909F908F907F900895A9
:1021E0002F923F924F925F926F927F928F929F9227
:1021F000AF92BF92CF92DF92EF92FF920F931F9315
:10220000DF93CF93CDB7DEB7EC970FB6F894DEBF70
:102210000FBECDBF9FA78EA769AB7AAB48ABDE01DF
:102220001196E4E7F0E080E201900D928150E1F731
:102230001DA61CA69E012F5F3F4F3CAF2BAFD4C104
:10224000222433248824992444245524C40101964B
:102250002114310451F44C018430910539F441E0EA
:10226000242E312C8824992401C04C01C40133E070
:10227000880F991F3A95E1F76BAC7CAC681A790A24
:10228000AA24BB24E7E0EFA32FE130E0620E731E27
:10229000E1E0F0E0EC0FFD1FE80FF91FFAAFE9AF46
:1022A00026C088A96FA1402F0E946B2D882361F062
:1022B0002114310411F4F70101C0F6016081C80155
:1022C00070E0A5010E94DB050F5F1F4F0894C10855
:1022D000D1080894E11CF11C0830110511F708948D
:1022E000A11CB11CFFA1F150FFA3FF3F31F063011E
:1022F000E9ACFAAC00E010E0D4CF89A99AA90E9419
:10230000B50B80E00E94DF080894411C511C27E0B7
:102310004216510409F09ACF1EA21DA2662477240A
:1023200022243324C3010196EDA1FEA1EF2B59F421
:102330003C018430910541F421E030E03EA32DA31F
:102340006624772401C03C01C30123E0880F991F54
:102350002A95E1F74BAC5CAC481A590A88249924B9
:1023600037E038A7EFE1F0E04E0E5F1E21E030E0ED
:102370002C0F3D1F280F391F38AF2FAB2CC04E2D0F
:10238000415088A968A50E946B2D882369F08DA112
:102390009EA1892B11F4F60101C0F501808190E026
:1023A000B801A4010E94DB050894E11CF11C015056
:1023B00010400894A108B1080894C11CD11CF9E090
:1023C000EF16F104E1F60894811C911C28A5215018
:1023D00028A72F3F49F05201CFA8D8AC01E0E02E4A
:1023E000F12C07E010E0CBCF89A99AA90E94B50B88
:1023F00080E00E94DF080894211C311C37E023167E
:10240000310409F08FCF1CA21BA2662477241BA6DF
:102410001AA6C3010196EBA1FCA1EF2B59F43C01D4
:102420008430910541F421E030E03CA32BA36624E5
:10243000772401C03C01C30113E0880F991F1A954E
:10244000E1F74BAC5CAC481A590AAA24BB24B7E0AC
:102450002B2EEFE1F0E04E0E5F1E21E030E02C0F5E
:102460003D1F280F391F3EAB2DAB2AC048010894F1
:102470008108910888A9622D432D0E946B2D882325
:1024800069F08BA19CA1892B11F4F70101C0F60121
:102490006081C40170E0A5010E94DB050F5F1F4F42
:1024A0003A940894C108D1080894E11CF11CFFEF8C
:1024B0003F16E1F60894A11CB11C2A942F1641F096
:1024C0006201EDA8FEA801E010E0A7E03A2ECECF11
:1024D00089A99AA90E94B50B80E00E94DF082AA56D
:1024E0003BA52F5F3F4F3BA72AA72730310509F0B7
:1024F00090CF1AA219A26624772422243324C30180
:102500000196E9A1FAA1EF2B59F43C018430910521
:1025100041F421E030E03AA329A36624772401C0E6
:102520003C01C301F3E0880F991FFA95E1F74BAC2A
:102530005CAC481A590A8824992437E039A7EFE19E
:10254000F0E04E0E5F1E21E030E02C0F3D1F280F03
:10255000391F3CAB2BAB2BC088A969A5402F0E942B
:102560006B2D882369F089A19AA1892B11F4F601BA
:1025700001C0F501808190E0B801A4010E94DB0553
:102580000894E11CF11C015010400894A108B10806
:102590000894C11CD11CF9E0EF16F104E9F6089487
:1025A000811C911C29A5215029A72F3F49F05201D8
:1025B000CBA8DCA8E1E0EE2EF12C07E010E0CCCFB8
:1025C00089A99AA90E94B50B80E00E94DF080894AF
:1025D000211C311C37E02316310409F090CF8CA563
:1025E0009DA501969DA78CA7ECA5FDA52EA53FA5B1
:1025F000E217F3070CF424CEEC960FB6F894DEBF86
:102600000FBECDBFCF91DF911F910F91FF90EF9043
:10261000DF90CF90BF90AF909F908F907F906F9002
:102620005F904F903F902F9008956F927F928F927E
:102630009F92AF92BF92CF92DF92EF92FF920F9351
:102640001F93CF93DF933C014B015A01CC24DD242F
:102650002CC00E9470368C010E9470367C010E9452
:102660007036FC01C80168E070E00E94F8358C010A
:10267000C70168E070E00E94F8359C01CF0168E076
:1026800070E00E94F835AC01C801B9010E94DB0579
:1026900021968C169D06ECF6C5010E94B50B80E0D4
:1026A0000E94DF080894C11CD11CC614D7041CF476
:1026B000C0E0D0E0EECFDF91CF911F910F91FF905E
:1026C000EF90DF90CF90BF90AF909F908F907F90D2
:1026D0006F900895CF93DF93C1E0D0E085E090E064
:1026E000BE0148EC50E00E9415132196C431D1057B
:1026F000A9F785E090E0BE0148EC50E00E94151378
:102700002197B9F7DF91CF910895DF92EF92FF9271
:102710000F931F93CF93DF938C0180E00E94DF081B
:10272000C0E0D0E0DD24DA94780111C0F901E80FAF
:10273000F91FE358FE4FD082019688309105B1F71A
:10274000C7010E94B50B2196C830D10549F080E041
:1027500090E09E0173E0220F331F7A95E1F7E6CFF8
:10276000C801880F991F800F911F0E94B50BC0E010
:10277000D0E011C0F901E80FF91FE358FE4F1082B5
:10278000019688309105B1F7C7010E94B50B2196DB
:10279000C830D10549F080E090E09E0153E0220F5F
:1027A000331F5A95E1F7E6CFDF91CF911F910F913B
:1027B000FF90EF90DF9008954F925F926F927F921B
:1027C0009F92AF92BF92CF92DF92EF92FF920F93C0
:1027D0001F93CF93DF93982E162F072F3A0180E097
:1027E0000E94DF08212F302FC9016C01C0E0D0E02A
:1027F000E7E04E2E512C35C06114710431F0F50123
:102800008081A201481B510904C0F7018081482F33
:1028100050E0FAE79F1619F4CE01B8010DC089E720
:10282000981621F4CE01BA01A80106C098E79916BE
:1028300029F4CA01B801AE010E94DB050F5F1F4FEA
:102840000894A11CB11C0894E11CF11C083011056E
:1028500099F62196E8E0F0E0CE0EDF1EC830D105F3
:1028600029F05601760100E010E0C6CFDF91CF914C
:102870001F910F91FF90EF90DF90CF90BF90AF909E
:102880009F907F906F905F904F9008952F923F920E
:102890004F925F926F927F928F929F92AF92BF9270
:1028A000CF92DF92EF92FF920F931F93DF93CF931C
:1028B000CDB7DEB7C158D0400FB6F894DEBF0FBE1B
:1028C000CDBFCF57DF4F8883C158D0402B013A018D
:1028D0004901B1E4AB2EB12CAC0EBD1EF501A1E84F
:1028E000CA2ED12CCC0EDD1E1192EC15FD05E1F7A0
:1028F00000E010E01E010894211C311C81E08816C4
:102900009104C9F414C00E94703660E470E00E9423
:10291000F835E1E4F0E0EC0FFD1FE80FF91F8081CE
:10292000882389F70F5F1F4F91E0908316C0003412
:1029300011054CF312C082E08816910471F4003442
:1029400011055CF4E1E4F0E0EC0FFD1FE00FF11F76
:1029500080818F5F80830F5F1F4FF501EE24FF247E
:102960009081892F8150863010F49F5F9083808101
:10297000873019F40894E11CF11C3196EC15FD0523
:1029800079F7D101F50180814114510419F097E0E4
:10299000981B892F8C9331961196EC15FD0599F7AC
:1029A000C3010E94B50BCF57DF4F8881C158D0407B
:1029B000B10140E050E00E94DC1382B394E089272B
:1029C00082BB80E4E816F10409F098CFCF57DF4FBF
:1029D0000FB6F894DEBF0FBECDBFCF91DF911F9130
:1029E0000F91FF90EF90DF90CF90BF90AF909F90AE
:1029F0008F907F906F905F904F903F902F900895B1
:102A00003F924F925F926F927F928F929F92AF927E
:102A1000BF92CF92DF92EF92FF920F931F93DF93BB
:102A2000CF93CDB7DEB7C058D0400FB6F894DEBF15
:102A30000FBECDBF382E2B014A01390100E010E056
:102A40006E010894C11CD11C81E4E82EF12CEC0E1F
:102A5000FD1EF601E00FF11F10820E947036F70193
:102A6000E00FF11F68E070E00E94F83580830F5F8F
:102A70001F4F0034110569F7EE24FF245E0108940E
:102A8000A11CB11C11E4C12ED12CCC0EDD1E1CC02A
:102A9000D8019C918081981710F49F5F9C930F5FE1
:102AA0001F4F31960C151D0599F7832DB501A30114
:102AB0000E94DC13C2010E94B50B0894E11CF11CBA
:102AC000B8E0EB16F10419F08501F601E1CFF80149
:102AD00027E0CE018F579F4F2193E817F907E1F7C1
:102AE000C4010E94B50BEE24FF244E010894811C02
:102AF000911C1FC080819C91891710F48F5F808387
:102B00008081981710F48150808331961196E017D8
:102B1000F10781F7832DB401A3010E94DC13C201E8
:102B20000E94B50B0894E11CF11C88E0E816F10442
:102B300019F0F501D601DECFC058DF4F0FB6F8947B
:102B4000DEBF0FBECDBFCF91DF911F910F91FF90E0
:102B5000EF90DF90CF90BF90AF909F908F907F903D
:102B60006F905F904F903F900895AC01DC01FB01A6
:102B700020E030E09C918081981710F49F5F9C9337
:102B80009C918081891710F491509C932F5F3F4F47
:102B9000119631962034310569F78AE7BA0140E091
:102BA00050E00E94DC1308952F923F924F925F9263
:102BB0006F927F928F929F92AF92BF92CF92DF924D
:102BC000EF92FF920F931F93DF93CF93CDB7DEB7B2
:102BD000C058D0400FB6F894DEBF0FBECDBF2C0159
:102BE0007B0100E010E05E010894A11CB11C54E0E0
:102BF000952E41E4C42ED12CCC0EDD1EF501E00F44
:102C0000F11F90820E947036F601E00FF11F68E01C
:102C100070E00E94F83580830F5F1F4F003411056C
:102C200069F700E010E031E4A32EB12CAC0EBD1E1C
:102C30006E010894C11CD11C3701C601B5014AE7D9
:102C40000E94B515C3010E94B50B0F5F1F4F0830DE
:102C5000110599F75701AA0CBB1CAA0CBB1CCC246C
:102C6000DD2491E4892E912C8C0E9D1E1E0108946A
:102C7000211C311C32C000E010E0C101B4014AE760
:102C80000E94B515C3010E94B50B0F5F1F4F08309E
:102C9000110599F7C5010E94B50BEE24FF240E948F
:102CA00070368C010E9470369C01C80160E470E0AF
:102CB0000E94F835F401E80FF91FC90168E070E0DF
:102CC0000E94F83580830894E11CF11C80E2E8162C
:102CD000F10429F70894C11CD11CC414D5045CF27A
:102CE000C058DF4F0FB6F894DEBF0FBECDBFCF91F7
:102CF000DF911F910F91FF90EF90DF90CF90BF90E9
:102D0000AF909F908F907F906F905F904F903F908B
:102D10002F9008958F929F92AF92BF92CF92DF92A1
:102D2000EF92FF920F931F93CF93DF934C018B0190
:102D30006130710511F480E001C08FEF0E94DF085F
:102D4000C0E0D0E00E94703668E070E00E94F83584
:102D5000B82EA92E0E94703668E070E00E94F83507
:102D6000D82EC92E0E94703668E070E00E94F835B7
:102D7000F82EE92E0115110559F48B2D9A2D6D2D84
:102D80007C2D4F2D5E2D0E9456078130D9F40DC049
:102D900001301105B9F48B2D9A2D6D2D7C2D4F2D01
:102DA0005E2D0E945607882369F48B2D9A2D6D2D78
:102DB0007C2D4F2D5E2D98010E947907C4010E9441
:102DC000B50B219681E0CF3FD8070CF4BBCFDF9144
:102DD000CF911F910F91FF90EF90DF90CF90BF9018
:102DE000AF909F908F9008956F927F928F929F9255
:102DF000AF92BF92DF92EF92FF920F931F93CF9308
:102E0000DF933C015B014A0180E00E94DF0800E0A3
:102E100010E01FC00E94703662E070E00E94F8353A
:102E2000AC0163E0440F551F6A95E1F7481B590B4D
:102E3000C801BE010E94DB052196C830D10551F7BB
:102E40000F5F1F4F0830110521F4DD24EE24FF240D
:102E500030C0C0E0D0E0DECF0E947036EC010E94AE
:102E6000703668E070E00E94F835082F8E1501F189
:102E7000CE0168E070E00E94F835182F8D15C1F082
:102E800090E0602F70E040E050E00E9456078823F9
:102E900021F0812F602F40E003C0812F602F47E099
:102EA00095010E945F0EC4010E94B50BD12EE02E49
:102EB000F3948F2D90E08615970574F2DF91CF91F2
:102EC0001F910F91FF90EF90DF90BF90AF909F9078
:102ED0008F907F906F900895EF92FF920F931F93C2
:102EE000CF93DF9380E00E94DF0800E010E07FEEE8
:102EF000E72E72E0F72E47C080E00E94DF08CE0187
:102F00000E94B50B8FEF0E94DF0884E690E00E94DC
:102F1000B50BCE0166EF7FEF0E94F83588EE93E0A7
:102F20000E94F8356F507040C60FD71F1C161D0643
:102F30001CF388EE93E00E94B50BCEEED2E080E069
:102F40000E94DF08C7018C1B9D0B0E94B50B8FEF01
:102F50000E94DF0884E690E00E94B50BCE0166EF88
:102F60007FEF0E94F83588EE93E00E94F8356F50AD
:102F70007040C60FD71F1C161D060CF30F5F1F4FA6
:102F80000230110519F0CEEED2E0B6CFDF91CF912D
:102F90001F910F91FF90EF9008952F923F924F92C3
:102FA0005F926F927F928F929F92AF92BF92CF92D9
:102FB000DF92EF92FF920F931F93DF93CF93CDB7E2
:102FC000DEB72E970FB6F894DEBF0FBECDBF9A8343
:102FD00089837C836B835E834D8338872F831A8735
:102FE00009874F5F5F4F21F4F7E02F2E312C02C08D
:102FF00022243324E9E06E2E712C89819A81681A8B
:10300000790A0E947036B3010E94F8356C010E9463
:103010007036B3010E94F8357C01442455247CC0ED
:103020000E9470368C010E9470369C01C80163E0DA
:1030300070E00E94F83501978C0D9D1D9E878D874D
:10304000181619061CF48615970514F0DE86CD8631
:10305000C90163E070E00E94F8358C010150104016
:103060000E0D1F1D101611061CF4061517050CF089
:1030700087018B816D817E810E94C40B8D849E842B
:10308000AA24BB2431C0EB81FC81EA37F10521F48D
:10309000C401B601A10115C08B819C8189379105BE
:1030A00021F4C401B101A6010CC0EB81FC81E83719
:1030B000F10549F44D855E854E0D5F1DC1016B859F
:1030C0007C850E94DB050894E11CF11C0894C11C5E
:1030D000D11C89819A81E816F906ACF20894A11CEA
:1030E000B11C0894811C911CE981FA81AE16BF06BF
:1030F0004CF46801EE24FF24C501800F911F9C87CA
:103100008B87E7CF89859A850E94B50B0894411C6F
:10311000511CCD84DE847801EF81F8854E165F0660
:103120000CF47ECF2E960FB6F894DEBF0FBECDBF47
:10313000CF91DF911F910F91FF90EF90DF90CF9093
:10314000BF90AF909F908F907F906F905F904F90C7
:103150003F902F900895AF92BF92CF92DF92EF925F
:10316000FF920F931F93CF93DF935C01CC24DD2458
:1031700033C00E94703664E070E00E94F835EC01C4
:10318000EE24FF241AC00E9470368C010E94703613
:103190009C01C80168E070E00E94F835FC01C9019B
:1031A00068E070E00E94F835BC01CF0147E050E0D4
:1031B0000E94DB050894E11CF11CEC16FD061CF3D3
:1031C00088EE93E00E94B50B8AE76FEF7FEF0E94D5
:1031D000C40B0894C11CD11CCA14DB0454F2DF9147
:1031E000CF911F910F91FF90EF90DF90CF90BF9004
:1031F000AF9008954F925F926F927F928F929F92BD
:10320000AF92BF92CF92DF92EF92FF920F931F93F4
:10321000DF93CF9300D000D00F92CDB7DEB76C0113
:103220003E010894611C711CB0E84B2E512C44C027
:10323000B3010E94A82DEE24FF2420C09201002E8D
:1032400002C0359527950A94E2F7F401808190E059
:1032500028233923232B31F087E090E0B501A80122
:103260000E94DB050F5F1F4F0830110539F70894E6
:10327000E11CF11CF5E0EF16F10459F000E010E05C
:1032800043018E0C9F1CA2E0AA2EB12CAE0CBF1CD9
:10329000D5CF00E010E088EE93E00E94B50B88E700
:1032A0006FEF7FEF0E94C40B0F5F1F4F06301105B9
:1032B00091F70894C11CD11CF6018081882309F084
:1032C000B7CF00E010E088EE93E00E94B50B88E7EE
:1032D0006FEF7FEF0E94C40B0F5F1F4F0830110587
:1032E00091F70F900F900F900F900F90CF91DF916B
:1032F0001F910F91FF90EF90DF90CF90BF90AF9014
:103300009F908F907F906F905F904F900895AF92B5
:10331000BF92CF92DF92EF92FF920F931F93CF93C2
:10332000DF935C016B01EE24FF244FC0C0E0D0E0CE
:103330008AE76FEF7FEF0E94C40B80E090E0BE0150
:1033400047E050E00E94DB05CE0167E070E047E017
:1033500050E00E94DB0507E010E00C1B1D0B87E02E
:1033600090E0B80147E050E00E94DB05C80160E052
:1033700070E047E050E00E94DB0580E090E0B8019B
:1033800047E050E00E94DB05C80167E070E047E0DD
:1033900050E00E94DB0587E090E0BE0147E050E08E
:1033A0000E94DB05CE0160E070E047E050E00E9443
:1033B000DB05C6010E94B50B2196C730D10509F087
:1033C000B7CF87E090E0E80EF91EAE14BF040CF012
:1033D000ADCFDF91CF911F910F91FF90EF90DF90D4
:1033E000CF90BF90AF900895AF92BF92CF92DF92EF
:1033F000EF92FF920F931F93CF93DF935C016B01CA
:10340000EE24FF2432C0C0E0D0E08AE76FEF7FEF08
:103410000E94C40B80E090E0BE0147E050E00E94B3
:10342000DB05CE0167E070E047E050E00E94DB057D
:1034300007E010E00C1B1D0B87E090E0B80147E0AF
:1034400050E00E94DB05C80160E070E047E050E01A
:103450000E94DB05C6010E94B50B2196C730D1053D
:10346000A1F687E090E0E80EF91EAE14BF045CF60A
:10347000DF91CF911F910F91FF90EF90DF90CF9050
:10348000BF90AF9008952F923F924F925F926F92AC
:103490007F928F929F92AF92BF92CF92DF92EF92E4
:1034A000FF920F931F93DF93CF93CDB7DEB7E897CB
:1034B0000FB6F894DEBF0FBECDBF9AAB89AB7CAB25
:1034C0006BAB222E80E00E94DF080E94703668E01D
:1034D00070E00E94F8357C013C010E94703668E083
:1034E00070E00E94F8358C012C010E94703668E073
:1034F00070E00E94F835382F292F6C01FE013196BB
:10350000CE01C1969EAB8DAB00831183E282F38224
:103510003483258336968DA99EA9E817F907A1F76C
:1035200011E0E12EF12CB1E08B2E912CA1E0AA2E1E
:10353000B12CFE013B97F8AFEFAB4BC20E94703647
:1035400063E070E00E94F835892B71F50E947036B7
:1035500063E070E00E94F835009759F40E947036DD
:1035600063E070E00E94F8357C010894E108F108FE
:103570001BC08130910559F40E94703663E070E001
:103580000E94F8354C010894810891080DC08230E2
:10359000910551F40E94703663E070E00E94F835A6
:1035A0005C010894A108B108FFEFEF16FFEFFF06DA
:1035B00099F44114510481F40E94703663E070E084
:1035C0000E94F835019719F0EE24FF2403C0F1E0C2
:1035D000EF2EF12C11E001C010E08FEF88168FEF75
:1035E000980699F46114710481F40E94703663E0C6
:1035F00070E00E94F835019719F08824992403C0DF
:10360000E1E08E2E912C01E001C000E09FEFA916B1
:103610009FEFB906A1F4C114D10489F40E94703659
:1036200063E070E00E94F835019719F0AA24BB24EA
:1036300003C071E0A72EB12C3324339401C033248E
:10364000E1E0EE16F10499F4F7E04F16510479F435
:103650000E94703663E070E00E94F835019719F01F
:10366000EE24FF2403C0EE24EA94FE2C11E081E056
:103670008816910499F497E06916710479F40E9410
:10368000703663E070E00E94F835019719F08824E5
:10369000992403C088248A94982C01E0E1E0AE16B6
:1036A000B104A1F4F7E0CF16D10481F40E94703682
:1036B00063E070E00E94F835019719F0AA24BB245A
:1036C00003C0AA24AA94BA2C33243394112351F1B1
:1036D0008114910491F487E06816710439F0611443
:1036E000710441F00E94703680FD04C088248A94E1
:1036F000982C03C061E0862E912CA114B10491F4A2
:1037000097E0C916D10439F0C114D10441F00E94E8
:10371000703680FD04C0AA24AA94BA2C03C051E0DC
:10372000A52EB12C002351F1E114F10491F4E7E04E
:103730004E16510439F04114510441F00E94703684
:1037400080FD04C0EE24EA94FE2C03C041E0E42E88
:10375000F12CA114B10491F4F3E0CF16D10439F0A7
:10376000C114D10441F00E94703680FD04C0AA2427
:10377000AA94BA2C03C031E0A32EB12C332061F1FE
:103780008114910491F487E06816710439F0611492
:10379000710441F00E94703680FD04C088248A9430
:1037A000982C03C021E0822E912CE114F104A1F4A5
:1037B00097E04916510421F4EE24EA94FE2C29C026
:1037C0004114510421F491E0E92EF12C08C00E942B
:1037D000703680FF04C151C041145104B1F461142A
:1037E000710441F4C114D10451F1E7E0CE16D104C3
:1037F00061F425C0F7E06F16710439F4C114D104E7
:10380000F1F087E0C816D104D1F097E049165104D1
:1038100061F56114710441F4C114D10481F0E7E051
:10382000CE16D10411F50BC0F7E06F167104E9F460
:10383000C114D10421F087E0C816D104B1F40E946C
:10384000703663E070E00E94F835009719F4EE24BA
:10385000FF240BC08130910519F48824992405C0F8
:103860008230910511F4AA24BB244114510441F47F
:103870009FEFE9169FEFF90619F481E0E82EF12C8D
:103880006114710441F4EFEF8E16EFEF9E0619F408
:1038900001E0802E912CC114D10441F4FFEFAF164A
:1038A000FFEFBF0619F411E0A12EB12C87E04816F6
:1038B000510439F491E0E916F10419F4EE24EA9484
:1038C000FE2CE7E06E16710439F4F1E08F169104D6
:1038D00019F488248A94982C87E0C816D10439F406
:1038E00091E0A916B10419F4AA24AA94BA2C4E0C9A
:1038F0005F1C680C791CCA0CDB1CE1E02E1679F405
:10390000C201B301A6010E94DB058BA99CA90E94FC
:10391000B50BC201B301A6010E948E0555C0F2E0AD
:103920002F1651F4C201B301A6010E9482078BA990
:103930009CA90E94B50B48C083E0281609F044C03A
:10394000FE01B596808191819783868382819381E0
:1039500091878087848195819387828736978FA905
:1039600098ADE817F90771F75A8249827C826B8219
:10397000DE82CD828E010F5F1F4FF801628173815D
:1039800044815581808191810E94DB050A5F1F4F30
:103990008DA99EA90817190781F78BA99CA90E94D8
:1039A000B50B8E010F5F1F4FF80162817381448157
:1039B0005581808191810E948E050A5F1F4F8DA9DC
:1039C0009EA90817190781F7E9A9FAA93197FAAB57
:1039D000E9AB89A99AA9892B09F0B0CD04C0EE24DE
:1039E000EA94FE2C4DCFE8960FB6F894DEBF0FBEDA
:1039F000CDBFCF91DF911F910F91FF90EF90DF909E
:103A0000CF90BF90AF909F908F907F906F905F907E
:103A10004F903F902F900895CF92DF92EF92FF92B8
:103A20000F931F93CF93DF93F82E6B01EA0180E091
:103A30000E94DF088F2D90E00E94BA0710E10E94DB
:103A4000703664E070E00E94F835E82E0E9470360F
:103A500064E070E00E94F835082F8E2D90E0602F12
:103A600070E04F2D50E00E945607882341F38E2DC1
:103A7000602F4F2D96010E945F0ECE010E94B50B64
:103A80001150E9F6DF91CF911F910F91FF90EF90C8
:103A9000DF90CF9008958F929F92AF92BF92CF9276
:103AA000DF92EF92FF920F931F93CF93DF935C010E
:103AB0006B0180E00E94DF08C0E0D0E003E0802ED0
:103AC000912C1C141D0414F0CE0103C0C4018C1BE6
:103AD0009D0BAC014C5F5F4F7401E81AF90ACA01F3
:103AE000BA01970187010E94D809C5010E94B50B50
:103AF00080E00E94DF082196C430D10511F7DF91E4
:103B0000CF911F910F91FF90EF90DF90CF90BF90DA
:103B1000AF909F908F9008952F923F924F925F9217
:103B20006F927F928F929F92AF92BF92CF92DF92CD
:103B3000EF92FF920F931F93DF93CF9300D0CDB7F7
:103B4000DEB79A8389834B011A012901AA24BB2479
:103B50002EEF622E2FEF722E660E771E4BC0CC24F6
:103B6000DD2488E0C816D10434F497E0E92EF12C66
:103B7000EC18FD0806C088EFE82E8FEFF82EEC0C4D
:103B8000FD1C80E00E94DF0881E090E00E94B50B00
:103B9000F89480E090E060E070E040E050E0970151
:103BA00087010E94D8091214130414F40E94780C9F
:103BB00091E08916910421F0E3E08E16910411F44E
:103BC0000E94190DF2E06F16710410F40E94BA0CF5
:103BD0007894C2010E94B50B80E00E94DF0808942F
:103BE000C11CD11C80E1C816D10409F0BACF0894D9
:103BF000A11CB11CE981FA81AE16BF060CF4AFCF4F
:103C00000F900F90CF91DF911F910F91FF90EF9048
:103C1000DF90CF90BF90AF909F908F907F906F90EC
:103C20005F904F903F902F900895EF92FF920F93E7
:103C30001F93E82EF62E072F10E08E2D612F0E9485
:103C40006B088F2D902F0E94B50B1F5F1830A9F7BE
:103C500017E080E00E94DF088E2D612F0E946B0824
:103C60008F2D902F0E94B50B115098F71F910F9137
:103C7000FF90EF900895EF92FF920F931F93E82E1D
:103C8000F62E072F10E080E00E94DF088E2D612FB6
:103C90000E946B088F2D902F0E94B50B1F5F18306C
:103CA00091F717E080E00E94DF088E2D612F0E94BF
:103CB0006B088F2D902F0E94B50B115098F71F9114
:103CC0000F91FF90EF900895AF92BF92CF92DF9245
:103CD000EF92FF920F931F93CF93DF93C0E0D0E05A
:103CE000BE0133E0759567953A95E1F7882777FD32
:103CF0008095982F0E94EE337B018C010E943E3507
:103D00009B01AC010E94E83220E030E040E650E444
:103D10000E94E8320E94BB335B016C01C801B7010D
:103D20000E9450339B01AC010E94E83220E030E059
:103D300040E650E40E94E8320E94BB337B018C01D4
:103D4000C501B70141E050E00E94DB05C501B701A4
:103D500041E050E00E94DB0588EE93E00E94B50B45
:103D600080E00E94DF08219683E0C83ED80709F072
:103D7000B7CFDF91CF911F910F91FF90EF90DF9020
:103D8000CF90BF90AF9008952F923F924F925F9245
:103D90006F927F928F929F92AF92BF92CF92DF925B
:103DA000EF92FF920F931F93DF93CF93CDB7DEB7C0
:103DB000C555D0400FB6F894DEBF0FBECDBF5C0135
:103DC00066967FAF6EAF6697DE011196E4E9F0E08C
:103DD00080E101900D928150E1F7CE0141960E9461
:103DE000B132C501880F991F880F991F64969FAF44
:103DF0008EAF6497442455249DC080E00E94DF0864
:103E0000882499247EC0F1018081B201680F711D60
:103E1000CE0141960E9475328C539F4F61E370E052
:103E20000E94F835062F10E0C401B501A8010E94D8
:103E3000DB05C301B501A8010E94DB0577E0C72EB1
:103E4000D12CCA18DB08C401B601A8010E94DB0509
:103E5000C301B601A8010E94DB0567E0E62EF12C44
:103E6000E01AF10AC401B501A7010E94DB05C301F4
:103E7000B501A7010E94DB05C401B601A7010E949C
:103E8000DB05C301B601A7010E94DB05C401B8012F
:103E9000A5010E94DB05C301B801A5010E94DB0555
:103EA000C401B801A6010E94DB05C301B801A60147
:103EB0000E94DB05C401B701A5010E94DB05C30117
:103EC000B701A5010E94DB05C401B701A6010E944C
:103ED000DB05C301B701A6010E94DB050894A11C04
:103EE000B11C84E090E0280E391E94E0A916B104BC
:103EF00009F089CF0894811C911CE4E08E1691048E
:103F000079F051E0252E312C2C0E3D1E280C391C49
:103F1000AA24BB2447E0642E712C6818790873CF5B
:103F200066968EAD9FAD66970E94B50B84E090E0DB
:103F3000480E591E6496EEADFFAD64974E165F06AF
:103F40000CF45BCFCB5ADF4F0FB6F894DEBF0FBE39
:103F5000CDBFCF91DF911F910F91FF90EF90DF9038
:103F6000CF90BF90AF909F908F907F906F905F9019
:103F70004F903F902F9008952F923F924F925F92D3
:103F80006F927F928F929F92AF92BF92CF92DF9269
:103F9000EF92FF920F931F93DF93CF93CDB7DEB7CE
:103FA000C555D0400FB6F894DEBF0FBECDBF6C0133
:103FB00066967FAF6EAF6697DE011196E4EAF0E099
:103FC00080E101900D928150E1F7CE0141960E946F
:103FD000B132C601880F991F880F991F64969FAF51
:103FE0008EAF649744245524A7E02A2E312C70C04C
:103FF00080E00E94DF08AA24BB2453C0F301808123
:10400000B201680F711DCE0141960E9475328C532A
:104010009F4F61E370E00E94F835062F10E0C50164
:10402000B601A8010E94DB05C401B601A8010E94E7
:10403000DB057101EC18FD08C501B701A8010E945C
:10404000DB05C401B701A8010E94DB05C101801B8B
:10405000910B8C01C501B601A8010E94DB05C401CA
:10406000B601A8010E94DB05C501B701A8010E94A5
:10407000DB05C401B701A8010E94DB050894C11C3F
:10408000D11CE4E0F0E06E0E7F1EF4E0CF16D10408
:1040900009F0B4CF0894A11CB11C84E0A816B104A7
:1040A00069F0F1E06F2E712C6C0E7D1E6A0C7B1C8A
:1040B000CC24DD2441018A189B08A0CF66968EADE2
:1040C0009FAD66970E94B50BE4E0F0E04E0E5F1ED8
:1040D00064968EAD9FAD6497481659060CF488CF50
:1040E000CB5ADF4F0FB6F894DEBF0FBECDBFCF91D6
:1040F000DF911F910F91FF90EF90DF90CF90BF90D5
:10410000AF909F908F907F906F905F904F903F9077
:104110002F9008952F923F924F925F926F927F92CD
:104120008F929F92AF92BF92CF92DF92EF92FF92C7
:104130000F931F93DF93CF93CDB7DEB7C555D04014
:104140000FB6F894DEBF0FBECDBF6C0166967FAF91
:104150006EAF6697DE011196E4EBF0E080E101902E
:104160000D928150E1F7CE0141960E94B132C60115
:10417000880F991F880F991F64969FAF8EAF649721
:104180004424552407E0202E312C70C080E00E948A
:10419000DF08AA24BB2453C0F3018081B201680F59
:1041A000711DCE0141960E9475328C539F4F61E381
:1041B00070E00E94F835062F10E0C501B801A60195
:1041C0000E94DB05C401B801A6010E94DB05710154
:1041D000EC18FD08C501B801A7010E94DB05C40168
:1041E000B801A7010E94DB05C101801B910B8C0166
:1041F000C501B801A6010E94DB05C401B801A601F2
:104200000E94DB05C501B801A7010E94DB05C401BE
:10421000B801A7010E94DB050894C11CD11CE4E091
:10422000F0E06E0E7F1EF4E0CF16D10409F0B4CF9B
:104230000894A11CB11C84E0A816B10469F011E037
:10424000612E712C6C0E7D1E6A0C7B1CCC24DD242F
:1042500041018A189B08A0CF66968EAD9FAD6697E8
:104260000E94B50BE4E0F0E04E0E5F1E64968EAD4A
:104270009FAD6497481659060CF488CFCB5ADF4F90
:104280000FB6F894DEBF0FBECDBFCF91DF911F9167
:104290000F91FF90EF90DF90CF90BF90AF909F90E5
:1042A0008F907F906F905F904F903F902F900895E8
:1042B0002F923F924F925F926F927F928F929F9236
:1042C000AF92BF92CF92DF92FF920F931F93DF9333
:1042D000CF93CDB7DEB7C355D0400FB6F894DEBF4D
:1042E0000FBECDBF6C0164967FAF6EAF6497DE01E9
:1042F0001196E4ECF0E080E101900D928150E1F73D
:10430000CE0141960E94B1321601220C331C220CC0
:10431000331C662477245DC080E00E94DF08AA2455
:10432000BB243EC0F4018081B301680F711DCE0132
:1043300041960E9475328C539F4F61E370E00E945A
:10434000F835F62EC501B6014F2D50E00E94DB0571
:10435000C201B6014F2D50E00E94DB0507E010E0DE
:104360000C191D09C501B8014F2D50E00E94DB0555
:10437000C201B8014F2D50E00E94DB050894C11C1A
:10438000D11C84E090E0880E991E94E0C916D104F7
:1043900049F60894A11CB11CE4E0AE16B10479F012
:1043A00041E0842E912C8C0E9D1E8A0C9B1CCC24EB
:1043B000DD2437E0432E512C4A185B08B3CF6496B6
:1043C0008EAD9FAD64970E94B50B84E090E0680EBF
:1043D000791E621473040CF49FCFCD5ADF4F0FB6D1
:1043E000F894DEBF0FBECDBFCF91DF911F910F912B
:1043F000FF90DF90CF90BF90AF909F908F907F9075
:104400006F905F904F903F902F9008952F923F9222
:104410004F925F926F927F928F929F92AF92BF92D4
:10442000CF92DF92EF92FF920F931F93DF93CF9380
:1044300000D00F92CDB7DEB7C82EB92E562E2DB7AD
:104440003EB73B832A8387E0689FC0011124ADB744
:10445000BEB7A81BB90B0FB6F894BEBF0FBEADBF59
:104460008DB69EB60894811C911CDD242AC0ED2CCB
:10447000FF248701A3E0000F111FAA95E1F70E1991
:104480001F09080D191DF801D08211820E94703693
:104490008F70D80113968C931397C7018170907019
:1044A000880F991F880F991F14968C93B2E0EB2206
:1044B000FF24EE0CFF1CF801E5828D2D84708683AD
:1044C000D394D514A0F28C2D9B2D9C013901F2E0E0
:1044D000F983252C332402C021E0298380E00E9447
:1044E000DF0864014424AA24BB24A4C07401EA0C9C
:1044F000FB1CD70111968C91882321F18D5F8730A9
:1045000009F486E0F701E80FF11DD70112969C919E
:1045100091508081980F9083992319F0943009F07D
:104520006BC0F6018081D70111969C911197892764
:10453000808311961C920E947036982F9F70F7010D
:1045400093835AC087010D5F1F4FD70113968C913B
:104550001397882321F0815013968C934DC00E94AD
:10456000703663E070E00E94F835E1E0F0E002C0F0
:10457000EE0FFF1F8A95E2F75E2FD6014C914E2772
:1045800030E018C0832F90E0FC0173E0EE0FFF1FB6
:104590007A95E1F7E81BF90BE80DF91D2081421728
:1045A00021F081812827421721F425E0F80120839A
:1045B00050E03F5F351530F35523E1F0952F9D5FB7
:1045C000973009F496E0F701E90FF11D8081882307
:1045D00021F0D70112961C920DC022E0F701228330
:1045E0003981313039F4953028F0D6018C918430FE
:1045F00008F450E0F7015183D70114962C911497D9
:1046000030E015960C91159710E01696EC91F0E0BD
:10461000C901B801AF012D5F3F4F0D5F1F4F3396AA
:104620007F010E9419094394E7E0F0E0CE0EDF1EFF
:10463000AE0EBF1E451408F459CF80E293E00E94ED
:10464000B50BF981F23019F020E030E01BC008947E
:10465000610871086114710409F43ECF3FCF822FC5
:1046600090E0FC0163E0EE0FFF1F6A95E1F7E81BA5
:10467000F90BE80DF91D808190E0821593050CF08F
:1046800031E02F5F251558F3332309F025CF8A81B8
:104690009B810FB6F8949EBF0FBE8DBF0F900F90F9
:1046A0000F90CF91DF911F910F91FF90EF90DF90CE
:1046B000CF90BF90AF909F908F907F906F905F90C2
:1046C0004F903F902F9008952F923F924F925F927C
:1046D0006F927F928F929F92AF92BF92CF92DF9212
:1046E000EF92FF920F931F93DF93CF9300D000D0F0
:1046F00000D0CDB7DEB74C013A8329836230B0F4E5
:10470000443030F4433011F4EE2406C0EE2408C0E7
:10471000453021F4E2E0EE2E81E003C072E0E72EA6
:1047200080E0613009F48260FF2462C0643038F5B3
:10473000423058F480E0633009F481E0413009F4FC
:104740008260EE24FF24F39453C0862F90E0840F00
:10475000911D079751F4633021F0EE24E394FF2478
:1047600032C0EE24E394FF2434C0633021F4EE24FD
:10477000E394FF2436C0EE24E394FF2438C0842F52
:1047800090E0262F30E04230A0F4820F931F05976F
:1047900041F4643019F062E0E62E13C052E0E52ED9
:1047A00016C0653019F442E0E42E19C032E0E32E61
:1047B0001CC0820F931F079771F4643031F0EE2410
:1047C000E394FF24F39481E013C0EE24E394FF24E8
:1047D000F39482E00DC0653031F4EE24E394FF24BD
:1047E000F39483E005C0EE24E394FF24F39480E087
:1047F00000E010E090E09C01227030703C832B833D
:1048000021E0222E312C28223922FF2059F0C40128
:10481000B8010E947532C82EC401B8010E949932B5
:10482000D82E0AC0C401B8010E947532D82EC40126
:10483000B8010E949932C82E80E00E94DF08AA24A5
:10484000B8E0BB2E4D2C55246C2C77242A2D30E05B
:10485000249DC001259D900D349D900D112468EA82
:1048600070E00E94F835C62E8B819C81892B19F04F
:1048700097E0961BC92E269DC001279D900D369D61
:10488000900D112468EA70E00E94F835D62E2114AC
:10489000310419F0E7E0E61BDE2E1E821D82EE20B9
:1048A00029F48D819E816D2D70E00EC0F1E0EF1630
:1048B00039F48D2D90E06C2D70E04D815E8106C045
:1048C0008D2D90E06D817E814C2D50E00E94DB05A6
:1048D0002D813E812F5F3F4F3E832D832830310550
:1048E000F1F6A394BA9409F0B1CF89819A810E941C
:1048F000B50B0C5F1F4F0C31110509F086CF2696C2
:104900000FB6F894DEBF0FBECDBFCF91DF911F91E0
:104910000F91FF90EF90DF90CF90BF90AF909F905E
:104920008F907F906F905F904F903F902F90089561
:10493000BF92CF92DF92EF92FF920F931F93DF937C
:10494000CF93CDB7DEB7C154D0400FB6F894DEBFD9
:104950000FBECDBFF82EE92E8E010F5F1F4FC8018D
:104960000E94B1322F2D3E2DC9016C01EE24B02ED4
:10497000012F24C00E94703666E070E00E94F83576
:10498000F82E282F30E08E2D90E082279327867016
:104990009070892B39F4C901039666E070E00E949B
:1049A000F835F82E8B2D902F6E2D4F2D24EF31E002
:1049B0000E9464230894C108D108EF2CC114D104CB
:1049C000C9F6CF5BDF4F0FB6F894DEBF0FBECDBF89
:1049D000CF91DF911F910F91FF90EF90DF90CF90DB
:1049E000BF9008952F923F924F925F926F927F9265
:1049F0008F929F92AF92BF92CF92DF92EF92FF92EF
:104A00000F931F93DF93CF93CDB7DEB7C954D04038
:104A10000FB6F894DEBF0FBECDBF24969FAF8EAF0A
:104A2000249726967FAF6EAF26972E010894411CDF
:104A3000511CC2010E94B13266247724B1C08301A7
:104A400015950795C201B8010E9475327C01C2011B
:104A5000B8010E9499328C549F4F63E070E00E942D
:104A6000F8358B0180E00E94DF08C7018C549F4F0E
:104A700063E070E00E94F83588E0A82EB12CA61AF9
:104A8000B70AB8E08B2E912C88E090E0801B910B48
:104A90002A969FAF8EAF2A977501B7FE04C0EE2409
:104AA000FF24EA18FB08EE9C1001EF9C300CFE9CE2
:104AB000300C1124C4016FE070E00E94F835279695
:104AC0006FAF279728967FAF28972A960EAD1FAD18
:104AD0002A97A8E0CA2ED12CA80117FF04C04427AA
:104AE0005527401B510BE114F10431F441155105D8
:104AF00019F460E070E018C09A012E0D3F1D359545
:104B00002795449FC001459F900D549F900D1124FF
:104B1000820D931DB9010E94F835CB01820F931FBE
:104B200063E070E00E94F835660D771DC2010E94B7
:104B300075329C01C6016FE070E00E94F835FB0100
:104B4000C9018C549F4F64E370E00E94F835AB01BB
:104B500027968FAD279728969FAD2897BF010E9473
:104B6000DB058FE090E0C80ED91E015F1F4F90E873
:104B7000C916D10409F0B0CF8FE090E0880E991EDD
:104B8000A80EB91E90E88916910409F085CF2696E3
:104B90008EAD9FAD26970E94B50B0894611C711CC9
:104BA00024968EAD9FAD2497681679060CF447CFF6
:104BB000C75BDF4F0FB6F894DEBF0FBECDBFCF91FE
:104BC000DF911F910F91FF90EF90DF90CF90BF90FA
:104BD000AF909F908F907F906F905F904F903F909D
:104BE0002F9008952F923F924F925F926F927F92F3
:104BF0008F929F92AF92BF92CF92DF92EF92FF92ED
:104C00000F931F93DF93CF93CDB7DEB76C970FB69B
:104C1000F894DEBF0FBECDBF9E8B8D8B788F6F8BD0
:104C20002DB73EB73A8F298F80E00E94DF088F8929
:104C3000988D880F991FAF89B88D8A0F9B1F23E02D
:104C4000880F991F2A95E1F7EDB7FEB7E81BF90B1E
:104C50000FB6F894FEBF0FBEEDBF8DB79EB701969D
:104C60008B8F9C8F1C8A1B8AE2C10E94703664E085
:104C700070E00E94F835AA2797FDA095BA2FBC01D5
:104C8000CD010E94EE335B016C010E94703664E03E
:104C900070E00E94F835AA2797FDA095BA2FBC01B5
:104CA000CD010E94EE337B018C010E94703662E0E0
:104CB00070E00E94F835AA2797FDA095BA2FBC0195
:104CC000CD010E94EE3320E030E040EA50E40E9443
:104CD000E8326F83788789879A87C601B50120E01B
:104CE00030E040E050E40E94E8326B837C838D83A7
:104CF0009E83C801B70120E030E040E050E40E940C
:104D0000E8324B015C0144245524CC24DD241CC032
:104D10006B817C818D819E810E94BB337B018C01E4
:104D2000C501B4010E94BB339B01AC01C701B901AD
:104D3000A2010E94DB050894411C511CC6010E947F
:104D4000B50B80E00E94DF0824EF31E0C20ED31ED5
:104D5000B201882777FD8095982F0E94EE332F812E
:104D6000388549855A850E944C3387FDD1CF8B8D7C
:104D70009C8D9C0129012224332486C08B819C8137
:104D8000AD81BE81F20180839183A283B383D2017E
:104D900014968D929D92AD92BC9217978F819885B3
:104DA000A985BA8580879187A287B3870E947036CC
:104DB0008C010E9470367C010E9470366C01C80123
:104DC00068EC70E00E94F835AA2797FDA095BA2FED
:104DD000BC01CD010E94EE3320E030E048EC52EC03
:104DE0000E94533320E030E040E85FE30E94E83265
:104DF000D2011C966D937D938D939C931F97C70151
:104E000068EC70E00E94F835AA2797FDA095BA2FAC
:104E1000BC01CD010E94EE3320E030E048EC52ECC2
:104E20000E94533320E030E040E85FE30E94E83224
:104E3000F201608B718B828B938BC60168EC70E002
:104E40000E94F835AA2797FDA095BA2FBC01CD0185
:104E50000E94EE3320E030E048EC52EC0E945333E5
:104E600020E030E040E85FE30E94E832D20154964F
:104E70006D937D938D939C9357970894211C311CBF
:104E8000E8E1F0E04E0E5F1E2F89388D22163306C2
:104E90000CF474CF1A821982A981BA81BD018827C6
:104EA00077FD8095982F0E94EE332DEC3CEC4CEC76
:104EB0005DE30E94E83220E030E040EA51E40E94E5
:104EC00053330E9486357B018C0120E030E040E2C4
:104ED00051E40E94DB3420E030E040E85FE30E94D0
:104EE000E8326F87788B898B9A8BC801B70120E0F5
:104EF00030E040E05FE30E94DB346B877C878D8786
:104F00009E872B8D3C8DC9012C012224332475C032
:104F1000F20164857585868597852F85388949894D
:104F20005A890E9453339B01AC01D2016D917D914E
:104F30008D919C910E94E8323B014C01F20160830B
:104F400071838283938360897189828993892F8594
:104F5000388949895A890E9453339B01AC01D20197
:104F600014966D917D918D919C9117970E94E832D6
:104F70007B018C01F2016483758386839783648946
:104F80007589868997892F85388949895A890E9428
:104F90005333D20118962D913D914D915C911B9701
:104FA0000E94E8322B853C854D855E850E94E73264
:104FB0005B016C01F2016087718782879387C4016E
:104FC000B3010E94BB333B014C01C801B7010E94F1
:104FD000BB337B018C01C601B5010E94BB339B0131
:104FE000AC01C301B701A9010E94DB050894211C93
:104FF000311C28E130E0420E531E8F89988D28160F
:1050000039060CF485CF88EE93E00E94B50B80E062
:105010000E94DF08A981BA811196BA83A9835997A2
:1050200009F03ACFEB89FC893196FC8BEB8B2B890D
:105030003C898D899E89281739070CF416CEA98DD5
:10504000BA8D0FB6F894BEBF0FBEADBF6C960FB64B
:10505000F894DEBF0FBECDBFCF91DF911F910F91AE
:10506000FF90EF90DF90CF90BF90AF909F908F9088
:105070007F906F905F904F903F902F9008954F9248
:105080005F926F927F928F929F92AF92BF92CF92D8
:10509000DF92EF92FF920F931F93CF93DF933C0128
:1050A0004B01AA24BB2447E0442E512C36C0C0E05B
:1050B000D0E06201CC1ADD0A80E090E060E070E0B0
:1050C000AE0127E030E000E010E076010E94B80A6F
:1050D00080E090E0BE0140E050E027E030E0860153
:1050E000EE24FF240E94B80AC4010E94B50B89E790
:1050F00061E070E00E94C40B8AE76FEF7FEF0E94CF
:10510000C40B88E76FEF7FEF0E94C40B2196C83075
:10511000D10579F60894A11CB11CA614B7043CF281
:10512000DF91CF911F910F91FF90EF90DF90CF9083
:10513000BF90AF909F908F907F906F905F904F90B7
:1051400008952F923F924F925F926F927F928F922B
:105150009F92AF92BF92CF92DF92EF92FF920F9306
:105160001F93DF93CF93CDB7DEB739014A01A60174
:1051700095010E94E7325B016C01C401B3012D89E6
:105180003E894F89588D0E94E7323B014C01C8018E
:10519000B701298D3A8D4B8D5C8D0E94E7321B0142
:1051A0002C01C601B501A60195010E94DB347B01EB
:1051B0008C01C401B301A40193010E94DB349B0163
:1051C000AC01C801B7010E94E8327B018C01C20129
:1051D000B101A20191010E94DB349B01AC01C80125
:1051E000B7010E94E8320E944835CF91DF911F91AC
:1051F0000F91FF90EF90DF90CF90BF90AF909F9076
:105200008F907F906F905F904F903F902F90089578
:105210002F923F924F925F926F927F928F929F92C6
:10522000AF92BF92CF92DF92EF92FF920F931F93B4
:10523000DF93CF93CDB7DEB7A0970FB6F894DEBF5C
:105240000FBECDBF9A87898780E00E94DF081A824F
:10525000198216C129813A81B901882777FD809585
:10526000982F0E94EE335B016C0120E030E048E4AF
:1052700052E40E9453337B018C01C8010E943E35E9
:1052800020E030E040E250E40E94DB3420E030E0F7
:1052900040E650E40E94E8326B8B7C8B8D8B9E8BBA
:1052A000B701C8010E94503320E030E040E250E4F2
:1052B0000E94DB3420E030E040E650E40E94E83217
:1052C0006F87788B898B9A8BC601B50120E030E01F
:1052D00040EF51E40E9453330E9450339B01AC01D4
:1052E0000E94E83220E030E040E650E40E94E832DC
:1052F0006B877C878D879E87C601B50120E030E0F3
:1053000046E153E40E9453330E943E3520E030E0F2
:1053100040E050E40E94E8326D837E838F8398875B
:1053200080E00E94DF081C821B8298C08DB79EB768
:1053300008970FB6F8949EBF0FBE8DBF4DB65EB6F0
:105340000894411C511C6B8D7C8D8D8D9E8D0E940F
:10535000EE333B014C016F89788D898D9A8D0E94C7
:10536000EE335B016C01AF8DB8A1BD01882777FDDD
:105370008095982F0E94EE337B018C012F85388910
:1053800049895A89C901DA01F20180839183A28394
:10539000B3832B853C854D855E85C901DA01848305
:1053A0009583A683B783C401B301A6019501EB8958
:1053B000FC896D884E885F01C62CD42C0E94A128E0
:1053C0007B018C012DB73EB7285F3F4F0FB6F89495
:1053D0003EBF0FBE2DBF2D813E814F8158850E945B
:1053E000D7341816CCF46D817E818F81988520E0AA
:1053F00030E040E85FE30E94E8329B01AC01C80165
:10540000B7010E944C3388233CF48B819C81B1010D
:105410004F8D58A10E94DB058F8D98A1019698A30E
:105420008F8F089709F082CF0894211C311C98E0D7
:105430002916310461F018A21F8EC101AA2797FD19
:10544000A095BA2F8F8B988FA98FBA8F6FCFAB8112
:10545000BC811196BC83AB83189769F02224332456
:105460008B819C81AA2797FDA095BA2F8B8F9C8F4B
:10547000AD8FBE8FE0CFA981BA811196BA83A9837F
:10548000E981FA8129853A85E217F3070CF4E2CE27
:10549000A0960FB6F894DEBF0FBECDBFCF91DF91BF
:1054A0001F910F91FF90EF90DF90CF90BF90AF9042
:1054B0009F908F907F906F905F904F903F902F9034
:1054C00008956F927F928F929F92AF92BF92CF92E8
:1054D000DF92EF92FF920F931F9339014A01A801C7
:1054E00097010E94E7327B018C01C401B301A60140
:1054F00095010E94E7325B016C01C801B701A80168
:1055000097010E94DB347B018C01C601B501A60125
:1055100095010E94DB349B01AC01C801B7010E94D8
:10552000E8320E9448351F910F91FF90EF90DF9075
:10553000CF90BF90AF909F908F907F906F90089585
:105540002F923F924F925F926F927F928F929F9293
:10555000AF92BF92CF92DF92EF92FF920F931F9381
:10556000DF93CF93CDB7DEB728970FB6F894DEBFA1
:105570000FBECDBF9A8389836624772480C080E0E4
:105580000E94DF0888249924C301AA2797FDA095CB
:10559000BA2F8B839C83AD83BE8366C0C201B101E9
:1055A0000E94EE337B018C01AF81B885BD01882755
:1055B00077FD8095982F0E94EE335B016C0160E0CF
:1055C00070E080E690E49B01AC010E94612A25E531
:1055D00034E64EE151E40E94533320E030E040E0F5
:1055E00051E40E94DB3426E636E646EA5FE30E9499
:1055F00053337B018C016B817C818D819E810E9464
:10560000EE3320E030E048E452E40E9453339B0143
:10561000AC01C801B7010E94E8320E943E3520E08B
:1056200030E040E850E40E94DB3420E030E040E825
:1056300050E40E94E8320E94BB339B01AC01C401DC
:105640006F817885A9010E94DB05EF81F88531968D
:10565000F887EF83389709F0A1CF0894811C911C3B
:10566000F8E08F16910441F018861F82140144243B
:1056700037FC4094542C92CF0894611C711C2981F2
:105680003A81621673060CF47ACF28960FB6F89416
:10569000DEBF0FBECDBFCF91DF911F910F91FF9065
:1056A000EF90DF90CF90BF90AF909F908F907F90C2
:1056B0006F905F904F903F902F9008952F923F9260
:1056C0004F925F926F927F928F929F92AF92BF9212
:1056D000CF92DF92EF92FF920F931F93DF93CF93BE
:1056E000CDB7DEB72C970FB6F894DEBF0FBECDBF97
:1056F0009A878987662477244EC02B853C85B9011B
:10570000882777FD8095982F0E94EE332D813E816A
:105710004F8158850E9453339B01AC01C201B101F6
:105720000E94E8320E943E3529813A814B815C819A
:105730000E94DB3420E030E040E850E40E94E83290
:105740007B018C010E94BB334B015C0160E070E087
:1057500080EE90E4A80197010E94E7320E94BB33DB
:105760006B017C018DEF9FEF6B857C85A4012AE0A6
:1057700030E08B0176010E9401068B859C850196A5
:105780009C878B87089709F0B8CF80E00E94DF08DC
:105790000894611C711CE985FA856E167F060CF071
:1057A0004EC0B301882777FD8095982F0E94EE3375
:1057B0007B018C0120E030E048EC52E40E9453333E
:1057C0000E943E3520E030E040E050E40E94E832A4
:1057D00020E030E040E85FE30E94E8326D837E83A2
:1057E0008F839887C801B70120E030E048E453E494
:1057F0000E9453330E943E3520E030E040E85FE3F2
:105800000E94E83220E030E040EC50E40E94DB34BB
:1058100020E030E040E450E40E94E83269837A837B
:105820008B839C83C801B70120E030E040E252E462
:105830000E9453331B012C011C861B865ECF2C96C5
:105840000FB6F894DEBF0FBECDBFCF91DF911F9191
:105850000F91FF90EF90DF90CF90BF90AF909F900F
:105860008F907F906F905F904F903F902F90089512
:105870002F923F924F925F926F927F928F929F9260
:10588000AF92BF92CF92DF92EF92FF920F931F934E
:10589000DF93CF93CDB7DEB76A970FB6F894DEBF2C
:1058A0000FBECDBF988B8F871A821982AAC0298D0F
:1058B0003A8DB901882777FD8095982F0E94EE33A5
:1058C0005B016C012F81388549855A850E945333CD
:1058D0009B01AC016B857C858D859E850E94E8329D
:1058E0007B018C010E943E353B014C01C801B70190
:1058F0000E9450331B012C01C801B70123EC35EF86
:1059000048E450E40E94E8327B018C01C8010E9407
:105910003E356B837C838D839E83B701C8010E94D3
:1059200050337B018C01C601B5010E94BB33698BEA
:105930007A8B8B8B9C8BC401B30120E030E040EA72
:1059400050E40E94DB3420E030E040E850E40E9464
:10595000E8320E94BB336D8B7E8B8F8B988FC20198
:10596000B10120E030E040EA50E40E94DB3420E066
:1059700030E040E850E40E94E8320E94BB332B0143
:105980003C016B817C818D819E8120E030E040E292
:1059900051E40E94DB3420E030E040E850E40E9413
:1059A000E8320E94BB334B015C01C801B70120E023
:1059B00030E040E251E40E94DB3420E030E040E897
:1059C00050E40E94E8320E94BB336B017C0189895C
:1059D0009A896D897E89A2019C01840176010E94C9
:1059E0000106898D9A8D01969A8F898F089709F003
:1059F0005ECF80E00E94DF08E981FA813196FA8368
:105A0000E98329813A818F8598892817390784F598
:105A1000B901882777FD8095982F0E94EE337B018E
:105A20008C0120E030E048E452E40E9453336B875D
:105A30007C878D879E87C801B70120E030E048E46D
:105A400053E40E9453330E943E3520E030E040EEA4
:105A500050E40E94DB3420E030E040E251E40E9458
:105A6000E8326F83788789879A871A8E198E1FCFBD
:105A70006A960FB6F894DEBF0FBECDBFCF91DF910F
:105A80001F910F91FF90EF90DF90CF90BF90AF905C
:105A90009F908F907F906F905F904F903F902F904E
:105AA0000895813019F48CE190E002C080E090E02C
:105AB000DC01A352BF4F20E030E009C0FD0184911A
:105AC000FB01E20FF31F80832F5F3F4F11962417D6
:105AD0003507A4F308951F93142F90E023E0880F57
