:100000000C9485000C94A2000C94A2000C94A20005
:100010000C94A4000C94A2000C94A2000C94A200D6
:100020000C94A2000C94A2000C94A2000C94A200C8
:100030000C94A2000C94A2000C94A2000C94A200B8
:100040000C94A2000C94A2000C94A2000C94A200A8
:100050000C94A2009831C7311432EE3201331533BB
:100060004B335D33753383339531E2337F34A334BF
:10007000243534354C355C35AB35BF35E235F43598
:1000800007361A362C363E364C365F366D36853698
:100090009936A936EE3600371137233705A84CCDEF
:1000A000B2D44EB93836A9020C50B9918688083CB2
:1000B000A6AAAA2ABE000000803F0664EC1B3C04EE
:1000C000BC163E3BE5B93CC93C37C29E5A3D66046E
:1000D00098083EEA69AAAA3E000000803F0706058C
:1000E000040302010010203040506070717273747C
:1000F0007576776757473727170403122130405129
:100100006273746556473726150011241FBECFE56C
:10011000D8E0DEBFCDBF11E0A0E6B0E0E6E0FAE750
:1001200002C005900D92AC3AB107D9F712E0ACEAE3
:10013000B1E001C01D92AE33B107E1F70E94DE02CB
:100140000C94013D0C9400001F920F920FB60F9279
:1001500011242F933F938F939F93EF93FF9315BA9F
:10016000C39A80B390E026E0969587952A95E1F7AB
:1001700080959095817090709093B4018093B301B5
:1001800020E030E0E0913D02F0E083E0EE0FFF1F61
:100190008A95E1F7E20FF31FE950FE4F80818BBB98
:1001A00098B3822F8F5F8770987F892B88BB2F5FD2
:1001B0003F4F2830310531F7C39820913D0281E04F
:1001C00090E002C0880F991F2A95E2F785BB8091C5
:1001D0003D028F5F80933D0280913D02883011F493
:1001E00010923D02FF91EF919F918F913F912F913E
:1001F0000F900FBE0F901F9018959FEF9ABB8FEE38
:1002000087BB94BB8FE181BB1BBA15BA80E188BB69
:1002100080E682BB84E183BD85B5856085BD85B5FB
:10022000886085BD14BC89B7806889BF10BC89E12E
:1002300089B986E880BD88E18AB91CB808955D9BBC
:10024000FECF8CB90895FC014091390250913A02D9
:1002500004C05D9BFECF2CB931962081822F90E0A7
:1002600084179507B1F708951F9310923C021092DE
:100270003B0210E19BC01092B2011092B10186C006
:1002800082B3812782BB109238021092370213C0CA
:1002900060913B0270913C028091B1019091B2015A
:1002A0000E942C078091370290913802019690931A
:1002B000380280933702409137025091380248301B
:1002C000510534F31092AF011092AE01E0917F001E
:1002D000F0918000DF01AA0FBB1F60918100709137
:1002E00082004091AC015091AD0120E030E01BC094
:1002F0006F5F7F4FB49B07C0859B05C0869B03C083
:1003000080E090E00AC07093820060938100509377
:10031000AD014093AC0194C00196AC018E179F07CC
:10032000DCF32F5F3F4F2A173B0714F370938200D3
:10033000609381005093AD014093AC013093AF01C5
:100340002093AE0110923802109237020FC06091D4
:100350003B0270913C020E94DF068091370290912F
:100360003802019690933802809337024091370209
:10037000509138028091B1019091B20148305105FD
:1003800034F301969093B2018093B1018091B10151
:100390009091B20108970CF473CF80913B02909139
:1003A0003C02019690933C0280933B0280913B0279
:1003B00090913C0208970CF45ECF10923802109294
:1003C000370210E183C010923C0210923B026EC0D3
:1003D00082B3812782BB1092B2011092B10154C046
:1003E00040913702509138020E942C071092AF01C1
:1003F0001092AE0180917F009091800064E070E0E7
:100400000E94DE3BAB01E0918100F091820060919F
:10041000AC017091AD0120E030E01EC03196B49B7C
:1004200007C0859B05C0869B03C080E090E00EC09E
:10043000F0938200E09381007093AD016093AC0172
:100440003093AF012093AE0149C00196BC018417DF
:100450009507DCF32F5F3F4F24173507FCF2F0932D
:100460008200E09381007093AD016093AC01309302
:10047000AF012093AE018091B1019091B20101963C
:100480009093B2018093B1018091B1019091B2013A
:1004900060913B0270913C02883091050CF4A0CF32
:1004A0006F5F7F4F70933C0260933B0280913B02F1
:1004B00090913C0208970CF48BCF80913702909179
:1004C0003802019690933802809337028091370268
:1004D0009091380208970CF476CF94981F91089564
:1004E0001F9340E050E020E030E014E004C040E022
:1004F00050E020E030E082B3812782BB5F9BFECFDB
:100500008CB190E08F3F910531F45F9BFECF8CB1B1
:1005100090E0009761F3FA0163E0EE0FFF1F6A9528
:10052000E1F7E20FF31FE954FE4F808327303105D6
:1005300049F44730510519F40E94DB0ED8CF4F5FC4
:100540005F4FD7CF2F5F3F4FD6CFCF93DF93C09171
:100550008100D0918200939A2196CE010E945B3C4B
:1005600088EE93E00E94060D9398929A859B1AC09C
:10057000B49B1BC0869B1CC080918100909182001F
:1005800088539F4FC817D90780F488EE93E00E94E4
:10059000060D9298939A859B05C0B49B06C08699D8
:1005A000DBCF06C022E030E005C021E030E002C031
:1005B00023E030E0C901DF91CF9108952F923F925F
:1005C0004F925F926F927F928F929F92AF92BF9263
:1005D000CF92DF92EF92FF920F931F93DF93CF930F
:1005E000CDB7DEB7C15CD0400FB6F894DEBF0FBE0A
:1005F000CDBF0E94FD0078940E94340181E0809379
:100600003D020E94A5028330910509F082C380E07B
:100610000E94300A04C084EF91E00E94060D809190
:10062000B3019091B4010197B1F380E690E00E948C
:10063000571B12BA969A80E00E94300A1E01089455
:10064000211C311C11E4412E512C4C0E5D1E80E00A
:100650000E94300A04C084EF91E00E94060D809150
:10066000B3019091B4010197B1F386E690E00E9446
:10067000571B88249924B0EAAB2EB6E8BB2EB1E014
:10068000CB2ED12CA3E06A2E712C45C0879B14C0C1
:1006900083E08816910484F40894811C911CF0EA8C
:1006A000AF2EF6E8BF2EF1E0CF2ED12C05C0089476
:1006B000A108B108C108D108879906C01A141B0403
:1006C0001C041D04A4F305C01A141B041C041D04FF
:1006D00084F08114910499F008948108910880E0D5
:1006E0000E94300AE0EAAE2EE6E8BE2EE1E0CE2E11
:1006F000D12C8114910419F080E00E94300AA401E9
:100700004C5F5F4F7301E818F908CA01BA019701FD
:1007100087010E94290B8091B3019091B401892B2C
:1007200009F4B4CF80E00E94300A04C084EF91E065
:100730000E94060D8091B3019091B4010197B1F32D
:1007400088E690E00E94571B8E010F571F4FC8018B
:100750000E949738EE24D02E012F2BC0869B04C018
:10076000879902C08699FACF869B25C00E94563C85
:1007700066E070E00E94DE3BF82E282F30E08E2DE0
:1007800090E08227932786709070892B39F4C901F5
:10079000039666E070E00E94DE3BF82E8D2D902FD0
:1007A0006E2D4F2D28EC30E00E946B26EF2C869B9F
:1007B00002C08699D5CF80E00E94300A04C084EF41
:1007C00091E00E94060D8091B3019091B4010197D0
:1007D000B1F38AE690E00E94571B9EC00E94563CEF
:1007E00069E070E00E94DE3BAC0180E090E060E0F8
:1007F00070E00E94050F0E94563C69E070E00E9484
:10080000DE3BAC0180E090E064E070E00E94050F08
:100810000E94563C69E070E00E94DE3BAC0182E041
:1008200090E062E070E00E94050F0E94563C69E093
:1008300070E00E94DE3BAC0182E090E066E070E098
:100840000E94050F0E94563C69E070E00E94DE3B6A
:10085000AC0184E090E060E070E00E94050F0E942F
:10086000563C69E070E00E94DE3BAC0184E090E021
:1008700064E070E00E94050F0E94563C69E070E061
:100880000E94DE3BAC0186E090E062E070E00E94F6
:10089000050F0E94563C69E070E00E94DE3B8C012F
:1008A00086E090E066E070E0A8010E94050F1092DB
:1008B0003802109237022AC084E690E00E94060DAA
:1008C0008AE76FEF7FEF0E94150D81E090E00AC08C
:1008D000879B03C000E21EE402C00F5F1F4F81E24E
:1008E0009EE4869B8C018EE4003218078CF3879976
:1008F00004C08EE401321807FCF280913702909117
:100900003802019690933802809337028091370223
:100910009091380207975CF3869960CF80E00E943F
:10092000300A04C084EF91E00E94060D8091B3016B
:100930009091B4010197B1F38CE690E00E94571BAF
:1009400001E010E047C01092B2011092B1011AC04C
:100950000E94563C69E070E00E94DE3BBC0180933F
:100960003B0270933C028091B1019091B2010E94D0
:10097000440F8091B1019091B20101969093B20120
:100980008093B1018091B1019091B201089704F375
:100990001BC084E690E00E94060D8AE76FEF7FEFB0
:1009A0000E94150D81E090E00AC0879B03C000E221
:1009B0001EE402C00F5F1F4F81E29EE4869B8C0104
:1009C0008EE4003218078CF3879904C08EE401325C
:1009D0001807FCF28699B7CF80E00E94300A04C065
:1009E00084EF91E00E94060D8091B3019091B401D3
:1009F0000197B1F38EE690E00E94571B74E0D72E6A
:100A00005EC000E010E0F101E00FF11FD0820E9413
:100A1000563CF201E00FF11F68E070E00E94DE3BFF
:100A200080830F5F1F4F0034110569F700E010E06D
:100A3000C101B2014AE70E94D31786E990E00E9403
:100A4000060D0F5F1F4F0830110591F734C000E00D
:100A500010E0C101B2014AE70E94D31786E990E095
:100A60000E94060D0F5F1F4F0830110591F702C05D
:100A7000869B02C0879BFCCFEE24FF240E94563C3D
:100A80008C010E94563C9C01C80160E470E00E9409
:100A9000DE3BF201E80FF91FC90168E070E00E9437
:100AA000DE3B80830894E11CF11C80E2E816F1042F
:100AB00029F7869B02C0879BCACF869B02C0869976
:100AC000A0CF80E00E94300A0E94563C69E070E0AE
:100AD0000E94DE3B9093B2018093B1010E94563C8C
:100AE00069E070E00E94DE3B90933C0280933B0201
:100AF0000E94563C69E070E00E94DE3B9093380211
:100B00008093370204C084EF91E00E94060D80912B
:100B1000B3019091B4010197B1F380E790E00E9496
:100B2000571B01E010E06CC00E94563C69E070E089
:100B30000E94DE3B9093B2018093B1010E94563C2B
:100B400069E070E00E94DE3B90933C0280933B02A0
:100B50000E94563C69E070E00E94DE3BAC0180934D
:100B600037025093380260913B0270913C028091B1
:100B7000B1019091B2010E942C073BC00E94563CEB
:100B800069E070E00E94DE3B9093B2018093B10176
:100B90000E94563C69E070E00E94DE3B90933C026C
:100BA00080933B020E94563C69E070E00E94DE3B6D
:100BB000AC01809337025093380260913B027091F0
:100BC0003C028091B1019091B2010E94DF0681E068
:100BD00090E00AC0879B03C000ED17E002C00F5FE2
:100BE0001F4F81E29EE4869B8C0187E0003D180741
:100BF0008CF3879905C08EE4013218070CF4BECF40
:100C0000869992CF80E00E94300A04C084EF91E080
:100C10000E94060D8091B3019091B4010197B1F348
:100C200082E790E00E94571B01E010E06FC0109235
:100C3000B2011092B1012FC010923C0210923B02FF
:100C40001BC00E94563C69E070E00E94DE3B8C01B4
:100C500060913B0270913C028091B1019091B20190
:100C6000A8010E94E50E80913B0290913C02019602
:100C700090933C0280933B0280913B0290913C0216
:100C80000897FCF28091B1019091B2010196909386
:100C9000B2018093B1018091B1019091B2010897A6
:100CA0005CF210923802109237022AC084E690E07B
:100CB0000E94060D8AE76FEF7FEF0E94150D81E01D
:100CC00090E00AC0879B03C000E21EE402C00F5FF1
:100CD0001F4F81E29EE4869B8C018EE40032180750
:100CE0008CF3879904C08EE401321807FCF28091DE
:100CF0003702909138020196909338028093370220
:100D0000809137029091380207975CF3869B9FCCC5
:100D10008ECF8230910569F480E00E94300A84E72A
:100D200090E00E94571B80E00E94300A94980E9435
:100D3000700201E010E0C8010E9479310F5F1F4F7F
:100D400004321105B4F7F7CF089778F477FD0DC09A
:100D50006830710554F457FD08C090E048305105E3
:100D60000CF091E081E0982701C090E0892F089570
:100D7000FF920F931F93CF93DF93F82E8B01EA011D
:100D80000E94A4068823A9F0FE0183E0EE0FFF1F56
:100D90008A95E1F7E00FF11FE954FE4F208181E0D1
:100DA00090E002C0880F991FFA94E2F780958223A1
:100DB0008083DF91CF911F910F91FF900895FF9253
:100DC0000F931F93CF93DF93F82E8B01EA010E94BC
:100DD000A4068823A9F0FE0193E0EE0FFF1F9A9569
:100DE000E1F7E00FF11FE950FE4F208181E090E034
:100DF00002C0880F991FFA94E2F7809582238083BE
:100E0000DF91CF911F910F91FF900895FF920F9363
:100E10001F93CF93DF93F82E8B01EA010E94A40663
:100E20008823A1F0FE0123E0EE0FFF1F2A95E1F7D2
:100E3000E00FF11FE954FE4F208181E090E002C0F5
:100E4000880F991FFA94E2F7282B2083DF91CF9126
:100E50001F910F91FF900895FF920F931F93CF93CF
:100E6000DF93F82E8B01EA010E94A4068823A1F0EB
:100E7000FE0133E0EE0FFF1F3A95E1F7E00FF11F9F
:100E8000E950FE4F208181E090E002C0880F991F59
:100E9000FA94E2F7282B2083DF91CF911F910F91D5
:100EA000FF9008952F923F924F925F926F927F92A0
:100EB0008F929F92AF92BF92CF92DF92EF92FF926A
:100EC0000F931F93DF93CF93CDB7DEB72C970FB659
:100ED000F894DEBF0FBECDBF281B390B061B170BC6
:100EE000E41AF50A37FD05C0A1E0B0E0BA87A9878A
:100EF00004C0EFEFFFEFFA87E9873C872B8737FFC6
:100F000005C0309521953F4F3C872B8717FD05C0C5
:100F100021E030E038872F8304C0AFEFBFEFB88700
:100F2000AF8317FF03C0109501951F4FF7FC05C055
:100F3000E1E0F0E0FE83ED8304C02FEF3FEF3E835E
:100F40002D83F7FE04C0F094E194F108F394AB858F
:100F5000BC85AA0FBB1FBC83AB83F801EE0FFF1F3C
:100F6000FA83E9831701220C331C2B853C8520175B
:100F700031070CF444C02E153F05DCF17F01E21A65
:100F8000F30A8101021B130B3C014A015B0144245B
:100F9000552428C0C301B501A4010E942C071E14CA
:100FA0001F0444F48F819885A80EB91EAB81BC81C3
:100FB000EA1AFB0A1016110644F4ED81FE818E0E2A
:100FC0009F1E2B813C81021B130B89819A81E80EA5
:100FD000F91E020D131D0894411C511CA985BA85E8
:100FE0006A0E7B1E6301EB85FC854E165F0694F24C
:100FF00090C02B853C85021713070CF448C00E15D2
:101000001F050CF444C0EB80FC80E01AF10AD1010A
:10101000A01BB10BBC87AB873B014A016C01442488
:10102000552430C0C601B301A4010E942C071E1430
:101030001F0444F4E985FA85CE0EDF1E29813A812A
:10104000E21AF30A8B859C851816190654F4AD81B3
:10105000BE818A0E9B1EE981FA818E1B9F0B9C87A5
:101060008B872B813C81E20EF31E8B859C85820D44
:10107000931D9C878B870894411C511CAF81B885B8
:101080006A0E7B1E53014016510664F242C009816C
:101090001A810E191F09EB81FC81EE19FF09FC87EB
:1010A000EB873A015B016C01442455242EC0C60134
:1010B000B501A3010E942C071016110634F42F81EC
:1010C0003885A20EB31E021913098B859C8518164C
:1010D000190644F4A985BA85CA0EDB1E8219930944
:1010E0009C878B87E981FA810E0F1F1F2B853C851A
:1010F0008B819C81280F391F3C872B870894411CCA
:10110000511CAD81BE816A0E7B1E43014E145F04EB
:1011100074F2C601B501A4010E942C072C960FB6EB
:10112000F894DEBF0FBECDBFCF91DF911F910F911D
:10113000FF90EF90DF90CF90BF90AF909F908F90F7
:101140007F906F905F904F903F902F900895FF9207
:101150000F931F93CF93DF93F82E8B01EA010E9428
:10116000A406882389F033E0CC0FDD1F3A95E1F720
:10117000C00FD11FC950DE4F888190E002C0959505
:101180008795FA94E2F78170DF91CF911F910F91CB
:10119000FF9008952130310519F40E942C0708951D
:1011A0000E94DF060895FF920F931F93CF93DF9362
:1011B000F82E8B01EA010E94A4068823A1F0FE010B
:1011C00043E0EE0FFF1F4A95E1F7E00FF11FE950F2
:1011D000FE4F208181E090E002C0880F991FFA94B1
:1011E000E2F728272083DF91CF911F910F91FF9085
:1011F0000895CF93DF93FC01DA01E90168177907BD
:101200001CF4CB01BF01FC01ED93FC93798368834F
:10121000DF91CF9108958830910598F420E030E077
:1012200053E0880F991F5A95E1F74FEFFC01E20F49
:10123000F31FE950FE4F40832F5F3F4F28303105A9
:10124000A9F708958830910590F420E030E063E03C
:10125000880F991F6A95E1F7FC01E20FF31FE9502F
:10126000FE4F10822F5F3F4F28303105A9F70895B8
:101270009C018830910530F581E090E002C0880F34
:10128000991F2A95E2F7982F40E050E012C0FB0129
:10129000E20FF31FE950FE4F8081892B80832F5F7F
:1012A0003F4F2830310599F74F5F5F4F4830510568
:1012B00049F020E030E0BA01E3E0660F771FEA95DD
:1012C000E1F7E5CF08959C018830910538F581E07C
:1012D00090E002C0880F991F2A95E2F7982F909509
:1012E00040E050E012C0FB01E20FF31FE950FE4F57
:1012F0008081892380832F5F3F4F2830310599F704
:101300004F5F5F4F4830510549F020E030E0BA01AF
:10131000F3E0660F771FFA95E1F7E5CF089588307F
:10132000910598F420E030E04FEFF901A3E0EE0FD3
:10133000FF1FAA95E1F7E80FF91FE950FE4F408320
:101340002F5F3F4F2830310581F708958830910590
:1013500090F420E030E0F901B3E0EE0FFF1FBA9502
:10136000E1F7E80FF91FE950FE4F10822F5F3F4F62
:101370002830310581F70895893749F08A37F9F027
:101380008837A1F5862F90E00E943809089570E013
:101390006830710558F520E030E08FEFF90193E0F7
:1013A000EE0FFF1F9A95E1F7E60FF71FE950FE4F8A
:1013B00080832F5F3F4F2830310581F7089570E01B
:1013C0006830710598F420E030E083E0660F771F05
:1013D0008A95E1F78FEFFB01E20FF31FE950FE4F13
:1013E00080832F5F3F4F28303105A9F70895893753
:1013F00049F08A37F1F0883791F5862F90E00E9406
:101400006309089570E06830710548F520E030E028
:10141000F90153E0EE0FFF1F5A95E1F7E60FF71FB2
:10142000E950FE4F10822F5F3F4F2830310581F782
:10143000089570E06830710590F420E030E043E0FA
:10144000660F771F4A95E1F7FB01E20FF31FE950A2
:10145000FE4F10822F5F3F4F28303105A9F70895C6
:1014600040E050E010C0FB01E20FF31FE950FE4FD7
:1014700080832F5F3F4F28303105A9F74F5F5F4FC3
:101480004830510549F020E030E0BA01E3E0660F52
:10149000771FEA95E1F7E7CF089540E050E010C0EC
:1014A000FB01E20FF31FE954FE4F80832F5F3F4F94
:1014B00028303105A9F74F5F5F4F4830510549F09B
:1014C00020E030E0BA01F3E0660F771FFA95E1F70C
:1014D000E7CF0895EF92FF920F931F93CF93DF937F
:1014E000DC01EB01F9012817390714F4D901FC01DB
:1014F0000C171D071CF4CE01E8018C01E416F5065B
:101500001CF4CA01A7017C0131968FEF90E09C0189
:1015100002C0220F331FEA95E2F7209502C0880F20
:10152000991FAA95E2F728230EC0FB01EA0FFB1FC3
:10153000E950FE4F8081822B808311960A171B078A
:10154000A4F74F5F5F4FE416F50644F0DE01BA01E1
:1015500083E0660F771F8A95E1F7F0CFDF91CF9197
:101560001F910F91FF90EF900895CF92DF92EF922D
:10157000FF920F931F93CF93DF93DC01F90128179C
:10158000390714F4D901FC01061717071CF4CB0125
:10159000B8018C01E416F5061CF4CA01A7017C0110
:1015A00081E090E09C010E2E02C0220F331F0A94AE
:1015B000E2F70A2E02C0880F991F0A94E2F7C22EA2
:1015C000C82A31968FEF90E09C0102C0220F331F92
:1015D000EA95E2F7D22ED09402C0880F991FAA95FF
:1015E000E2F7D8229A0121C0A617B70749F0A01741
:1015F000B10731F02417350719F02E153F0539F4DE
:10160000FE01EA0FFB1FE950FE4FD08208C0FE0129
:10161000EA0FFB1FE950FE4F80818C2980831196D1
:101620000A171B070CF72F5F3F4FE216F30644F033
:10163000DB01E90193E0CC0FDD1F9A95E1F7F0CFD4
:10164000DF91CF911F910F91FF90EF90DF90CF909E
:1016500008956F927F928F929F92AF92BF92CF9296
:10166000DF92EF92FF920F931F93CF93DF933C0192
:101670004B015A0169012817390714F439016C012B
:10168000081519051CF4C40148018C01EA14FB0477
:101690001CF4C50157017C010894C11CD11C8FEFBB
:1016A00090E09C010C2C02C0220F331F0A94E2F739
:1016B0000894C108D1082095062C02C0880F991FF4
:1016C0000A94E2F72823D50143E0AA0FBB1F4A95ED
:1016D000E1F7FD01E80DF91DE950FE4F2083A00F51
:1016E000B11FA950BE4F2C93D70133E0AA0FBB1FE7
:1016F0003A95E1F7FD01E80DF91DE950FE4F208311
:10170000A00FB11FA950BE4F2C93E40115C0C30117
:10171000BE01A5010E942C07C301BE01A7010E94C2
:101720002C07C601BE01A5010E942C07C601BE01FF
:10173000A7010E942C0721960C171D0744F7E5010D
:1017400015C0C301B401AE010E942C07C301B8014A
:10175000AE010E942C07C601B401AE010E942C0705
:10176000C601B801AE010E942C072196EC16FD06B9
:1017700044F7DF91CF911F910F91FF90EF90DF9091
:10178000CF90BF90AF909F908F907F906F90089573
:101790006F5F7F4F2FEF30E0A90102C0440F551F4C
:1017A0006A95E2F7BA01609502C0220F331F8A954D
:1017B000E2F7862F82230895482F282F30E0829564
:1017C00086958270942F991F9927991F892B942FA2
:1017D0009695969596959470892B46954870842B8E
:1017E000220F331F922F9071892B220F331F220F4C
:1017F000331F922F9072892B220F331F220F331F1A
:10180000922F9074892B220F331F220F331F822BAC
:1018100008952F923F924F925F926F927F928F9294
:101820009F92AF92BF92CF92DF92EF92FF920F936F
:101830001F93DF93CF93CDB7DEB766970FB6F894BB
:10184000DEBF0FBECDBF2C015B014A01190167014C
:10185000281739073CF412012901C8018B015C01EA
:101860006A0147013101641875080A151B0544F423
:10187000B501601B710B882777FD8095982F07C0F5
:101880000A191B09B801882777FD8095982F0E94B7
:10189000D4397B018C01B301882777FD8095982F7F
:1018A0000E94D4399B01AC01C801B7010E943939AB
:1018B0006D837E838F839887310164187508C814FF
:1018C000D90444F4B4016C197D09882777FD80950B
:1018D000982F07C0C818D908B601882777FD8095CA
:1018E000982F0E94D4397B018C01B301882777FDA2
:1018F0008095982F0E94D4399B01AC01C801B70193
:101900000E94393969837A838B839C83642CC50157
:10191000AA2797FDA095BA2F8D879E87AF87B88B92
:10192000C401AA2797FDA095BA2F898B9A8BAB8B00
:10193000BC8B4BC06D897E8964197509882777FD3A
:101940008095982F0E94D4395B016C016D817E8156
:101950008F819885A60195010E94C13A7B018C0177
:101960006D857E858F8598890E94D4399B01AC0155
:10197000C801B7010E94CE380E94A63969877A87CC
:101980008B879C8769817A818B819C81A6019501D7
:101990000E94C13A7B018C0169897A898B899C8973
:1019A0000E94D4399B01AC01C801B7010E94CE3816
:1019B0000E94A6399B01AC018D899E89698570E0E2
:1019C000422F50E00E942C076394A62DB0E0BE8BFE
:1019D000AD8B2A163B060CF0ADCF66960FB6F89489
:1019E000DEBF0FBECDBFCF91DF911F910F91FF9052
:1019F000EF90DF90CF90BF90AF909F908F907F90AF
:101A00006F905F904F903F902F9008950BC020E013
:101A10000000000000000000000000002F5F2A35D9
:101A2000B9F70197009799F708952F923F924F9237
:101A30005F926F927F929F92AF92BF92CF92DF920E
:101A4000EF92FF920F931F93CF93DF93982E5B013A
:101A5000CC24DD24A7E02A2E312C8FEFA8168FEF9F
:101A6000B80611F4760103C07101EC18FD0800E01E
:101A700010E0270108944108510837010894611CBF
:101A8000711C3AC08FEFA8168FEFB80611F4C3018E
:101A900001C0C201AC018AE7981649F4C801BE0131
:101AA0000E94A708282FC801BE01A70119C089E715
:101AB000981651F4C801BA01AE010E94A708282F58
:101AC000C801B701AE010CC088E7981661F4CA01DD
:101AD000BE01A8010E94A708282FC701BE01A801C6
:101AE00030E00E94CA082196C830D10559F60F5F30
:101AF0001F4F0830110519F0C0E0D0E0C3CF0894A3
:101B0000C11CD11C88E0C816D10409F0A6CF8FEF04
:101B1000A8168FEFB80619F0EE24FF2403C0F7E0F3
:101B2000EF2EF12C00E010E01FC08AE7981621F498
:101B3000C801BE01A7010DC089E7981621F4C801AC
:101B4000B701AE0106C088E7981629F4C701BE01A7
:101B5000A8010E94DF062196C830D10531F70F5F3A
:101B60001F4F0830110519F0C0E0D0E0DECFDF9143
:101B7000CF911F910F91FF90EF90DF90CF90BF908A
:101B8000AF909F907F906F905F904F903F902F907D
:101B90000895DF93CF93CDB7DEB7C054D0400FB6D2
:101BA000F894DEBF0FBECDBFDE011196E7EFF1E086
:101BB00080E401900D928150E1F740E050E0BE01D9
:101BC0006F5F7F4F18C08C91F90193E0EE0FFF1FFC
:101BD0009A95E1F7E40FF51FE950FE4F80831896C0
:101BE000215030408FEF2F3F380769F74F5F5F4F2D
:101BF0004830510531F0DB01A40FB51F27E030E07C
:101C0000E2CFC05CDF4F0FB6F894DEBF0FBECDBF92
:101C1000CF91DF9108958F929F92AF92BF92CF9212
:101C2000DF92EF92FF920F931F93DF93CF93CDB785
:101C3000DEB7C054D0400FB6F894DEBF0FBECDBFA4
:101C4000DE011196E7EFF1E080E401900D92815002
:101C5000E1F70E94300AEE24FF244E010894811C13
:101C6000911C17C0F60181916F010E94DC0BF501F8
:101C7000E00FF11FE950FE4F80830F5F1F4F0830C8
:101C8000110581F70894E11CF11CF8E0EF16F1044E
:101C900069F0C70123E0880F991F2A95E1F76401D5
:101CA000C80ED91E00E010E05C01DCCFC05CDF4F45
:101CB0000FB6F894DEBF0FBECDBFCF91DF911F915D
:101CC0000F91FF90EF90DF90CF90BF90AF909F90DB
:101CD0008F9008958F929F92AF92BF92CF92DF9292
:101CE000EF92FF920F931F93DF93CF93CDB7DEB7A1
:101CF000C054D0400FB6F894DEBF0FBECDBFDE019A
:101D00001196E7EFF1E080E401900D928150E1F748
:101D10000E94300AAA24BB244E010894811C911C05
:101D20002AC0F701808190E0002E02C0959587952A
:101D30000A94E2F780FF05C0C801B601A5010E9420
:101D40002C070F5F1F4F0830110559F70894E11C4D
:101D5000F11C0894C108D108FFEFCF16FFEFDF0692
:101D600019F000E010E0DDCF0894A11CB11C88E060
:101D7000A816B10461F0750143E0EE0CFF1C4A9512
:101D8000E1F7E80CF91C37E0C32ED12CEACFC05C98
:101D9000DF4F0FB6F894DEBF0FBECDBFCF91DF91FE
:101DA0001F910F91FF90EF90DF90CF90BF90AF9079
:101DB0009F908F900895A7EFB1E0E7EBF1E080E40A
:101DC00001900D928150E1F70895CF92DF92EF924A
:101DD000FF920F931F93CF93DF936C017B018A01D6
:101DE000C0E0D0E006C0C601B701AE010E942C07DA
:101DF0002196C017D107BCF3DF91CF911F910F91AE
:101E0000FF90EF90DF90CF9008958F929F92AF92C6
:101E1000BF92CF92DF92EF92FF920F931F93CF93D7
:101E2000DF937C018B014A01C0E0D0E05C010894A3
:101E3000A11CB11C6B010894C11CD11C15C0C701A9
:101E4000B801AE010E942C07C501B801AE010E9485
:101E50002C07C701B601AE010E942C07C501B601CF
:101E6000AE010E942C072196C815D90544F3DF91D5
:101E7000CF911F910F91FF90EF90DF90CF90BF9087
:101E8000AF909F908F900895CF92DF92EF92FF9244
:101E90000F931F93CF93DF936C017B0100E010E061
:101EA0000DC0C0E0D0E0CE01B601A8010E942C0711
:101EB0002196C830D105B9F70F5F1F4F0E151F05CA
:101EC00084F3DF91CF911F910F91FF90EF90DF90FE
:101ED000CF900895CF93DF93EC01DC0120E030E058
:101EE00014C0A830B10574F4283031055CF4FD014C
:101EF00083E0EE0FFF1F8A95E1F7E20FF31FE95031
:101F0000FE4F60832F5F3F4F1197C217D3074CF7E7
:101F1000CA010E94060DCE01DF91CF9108950F9363
:101F20001F93CF93DF938B01EA01892B51F080E15E
:101F300090E0BE01A8010E946A0F019797FFF9CFB8
:101F40000AC080E090E0BE01A8010E946A0F0196DD
:101F500080319105C4F3DF91CF911F910F910895C6
:101F60007F928F929F92AF92BF92CF92DF92EF9229
:101F7000FF920F931F93CF93DF93E82EF62E742ECC
:101F80006901C0E0D0E027E0822E912C98E0A92ED4
:101F9000B12C87E0781669F484010C1B1D0BA50198
:101FA0004C1B5D0B8E2D90E06F2D70E00E94DF06C4
:101FB0000AC0AE01415050408E2D90E06F2D70E070
:101FC0000E94DF068E018E2D90E06F2D70E0A8013B
:101FD0000E942C07C6010E94060D2196C830D1052B
:101FE000C1F6DF91CF911F910F91FF90EF90DF909D
:101FF000CF90BF90AF909F908F907F900895AF92B9
:10200000BF92CF92DF92EF92FF920F931F93CF93E5
:10201000DF935C01EB013DC08091B3019091B4016D
:102020000197E1F100E010E07501EC0EFD1E670183
:102030000894C108D1088091B3019091B40101972F
:1020400019F4C0E0D0E01FC0F6018081682F70E075
:102050006F70707082958F7090E0A8010E94A70841
:10206000282FF7018081682F70E06F707070829563
:102070008F7090E0A80130E00E94CA080F5F1F4FE8
:1020800008301105C1F68091B3019091B401019718
:1020900029F021971C161D060CF4BECFC0E0D0E03D
:1020A000F5018081682F70E06F70707082958F707D
:1020B00090E0AE010E94DF068091B3019091B401DF
:1020C000019721F02196C830D10551F7DF91CF91CA
:1020D0001F910F91FF90EF90DF90CF90BF90AF9046
:1020E00008954F925F926F927F928F929F92AF92DC
:1020F000BF92CF92DF92EF92FF920F931F93DF93E5
:10210000CF93CDB7DEB76C970FB6F894DEBF0FBE96
:10211000CDBF3C01A62E4A0180E02E010894411C4F
:10212000511CB2014CE150E00E94FE30CC24DD2471
:1021300079C08091B3019091B401019709F476C000
:10214000EE24FF248091B3019091B401019709F42A
:102150004EC000E010E047E0B42E8091B3019091B2
:10216000B401019719F18A2D6B2D4E2D0E94183163
:10217000882341F080E090E067E070E0A8010E94D1
:102180002C0707C080E090E067E070E0A8010E94A3
:10219000DF068091B3019091B401019739F00F5F90
:1021A0001F4FBA948FEFB816C1F604C0640138E02F
:1021B000E32EF12CC3010E94060D8091B301909192
:1021C000B4010197A1F0C2016CE170E00E94FF0F21
:1021D0008091B3019091B401019749F00894E11CFA
:1021E000F11C88E0E816F1040CF4ACCF01C06401E6
:1021F00000E010E0C3010E94060D8091B3019091B0
:10220000B401019711F464010AC0C2016CE170E0ED
:102210000E94FF0F0F5F1F4F0431110559F70894FB
:10222000C11CD11CC814D9040CF483CF00E010E009
:102230007E010894E11CF11C8091B3019091B401DE
:10224000019769F0C3010E94060DC7016CE170E0BF
:102250000E94FF0F0F5F1F4F0A30110569F76C9640
:102260000FB6F894DEBF0FBECDBFCF91DF911F91A7
:102270000F91FF90EF90DF90CF90BF90AF909F9025
:102280008F907F906F905F904F9008952F923F9224
:102290004F925F926F927F928F929F92AF92BF9276
:1022A000CF92DF92EF92FF920F931F93DF93CF9322
:1022B000CDB7DEB7A1970FB6F894DEBF0FBECDBF86
:1022C0003C016B0166E0862E912C8C0E9D1E80E0F9
:1022D000B4014CE150E00E94FE301E010894211C24
:1022E000311C240144C0822FB1010E94553171017B
:1022F000F701808100E010E0A82EBB2487E090E089
:10230000801B910B950102C0359527958A95E2F7C0
:1023100020FF08C080E090E067E070E0A8010E9424
:102320002C0707C080E090E067E070E0A8010E9401
:10233000DF060F5F1F4F0830110501F7C4016CE184
:1023400070E00E94FF0FC3010E94060D0894E11C7B
:10235000F11CE414F50461F60894C11CD11CC201FF
:102360006CE170E00E94FF0FC3010E94060DF601B0
:102370002081222339F08091B3019091B401892BFF
:1023800009F4B1CF00E010E056E0E52EF12CEC0EA0
:10239000FD1EC7016CE170E00E94FF0FC3010E94A7
:1023A000060D0F5F1F4F0C31110599F7A1960FB65F
:1023B000F894DEBF0FBECDBFCF91DF911F910F917B
:1023C000FF90EF90DF90CF90BF90AF909F908F9055
:1023D0007F906F905F904F903F902F9008959F92C5
:1023E000AF92BF92CF92DF92EF92FF920F931F9323
:1023F000DF93CF93CDB7DEB760970FB6F894DEBF0B
:102400000FBECDBF5C016B0181E08E010F5F1F4FDE
:10241000B80140E150E00E94FE30EE24FF24902EEF
:10242000012F15C0A7014770507084E090E060E074
:1024300070E00E942C07C6010E94060D892D902F86
:102440006CE170E00E94FF0F0894E11CF11CEA149B
:10245000FB0444F360960FB6F894DEBF0FBECDBF09
:10246000CF91DF911F910F91FF90EF90DF90CF9070
:10247000BF90AF909F9008957F928F929F92AF925E
:10248000BF92CF92DF92EF92FF920F931F93DF9351
:10249000CF93CDB7DEB76C970FB6F894DEBF0FBE03
:1024A000CDBF4C015B0180E08E010F5F1F4FB80173
:1024B0004CE150E00E94FE30E4E0EE2EF12CCC2402
:1024C000DD24702E012F30C08091B3019091B401B2
:1024D000019769F10E94563C0894E108F10863E015
:1024E00070E00E94DE3BE80EF91E88E0E816F10479
:1024F00024F077E0E72EF12C04C0F7FE02C0EE24B2
:10250000FF24872D902F6CE170E00E94FF0F80E088
:1025100090E067E070E0A7010E942C07C5010E94CF
:10252000060D0894C11CD11CC814D9046CF26C9619
:102530000FB6F894DEBF0FBECDBFCF91DF911F91D4
:102540000F91FF90EF90DF90CF90BF90AF909F9052
:102550008F907F9008952F923F924F925F926F924B
:102560007F928F929F92AF92BF92CF92DF92EF9223
:10257000FF920F931F93DF93CF93CDB7DEB7EC9706
:102580000FB6F894DEBF0FBECDBF9BA78AA76DA77D
:102590007EA74CA7DE011196E3E8F0E080E201900F
:1025A0000D928150E1F719A618A69E012F5F3F4FAB
:1025B0003CAF2BAF20C22224332488249924442406
:1025C0005524C40101962114310451F44C01843086
:1025D000910539F4F1E02F2E312C8824992401C083
:1025E0004C01C401E3E0880F991FEA95E1F76BAC59
:1025F0007CAC681A790A00E010E0EFE1F0E06E0EC2
:102600007F1E21E030E02C0F3D1F280F391F3AAF0D
:1026100029AF35C08091B3019091B401019751F475
:102620008AA59BA599A788A708E010E077E0472E28
:10263000512C20C08CA568AD4E2D0E9418318823E6
:1026400061F02114310411F4F60101C0F50160813B
:10265000C70170E0A8010E942C070894E11CF11C3E
:102660000894A108B1080894C11CD11CF8E0EF1629
:10267000F10481F60F5F1F4F083011054CF4530130
:10268000C9ACDAACEE24FF2427E0201B28AFC2CF70
:102690008091B3019091B401019729F48AA59BA57B
:1026A00099A788A70FC08DA59EA50E94060D80E062
:1026B0000E94300A0894411C511C97E049165104AD
:1026C0000CF47FCF1EA21DA266247724222433247B
:1026D000C3010196EDA1FEA1EF2B59F43C0184301A
:1026E000910541F421E030E03EA32DA36624772438
:1026F00001C03C01C30163E0880F991F6A95E1F7AF
:102700004BAC5CAC481A590A00E010E0EFE1F0E095
:102710004E0E5F1E21E030E02C0F3D1F280F391FA9
:102720003FAB2EAB3AC08091B3019091B4010197B9
:1027300051F48AA59BA599A788A708E010E057E067
:10274000252E312C25C04C2D41508CA56DA90E9401
:102750001831882369F0EDA1FEA1EF2B11F4F501EA
:1027600001C0F401808190E0B701A8010E942C070C
:102770000894C11CD11C0894E108F1080894810850
:1027800091080894A11CB11CF9E0CF16D10459F6A8
:102790000F5F1F4F083011056CF44201AEA8BFA8AF
:1027A00041E0C42ED12C37E0E32EF12C27E0201B92
:1027B0002DABB9CF8DA59EA50E94060D80E00E948D
:1027C000300A0894211C311C37E0231631040CF424
:1027D0007FCF1CA21BA28824992422243324C40165
:1027E0000196EBA1FCA1EF2B59F44C01843091052B
:1027F00041F421E030E03CA32BA38824992401C0BC
:102800004C01C40123E0880F991F2A95E1F74BACD6
:102810005CAC481A590A00E010E0EFE1F0E04E0E1F
:102820005F1E21E030E02C0F3D1F280F391F3CAB0D
:102830002BAB3BC037010894610871088091B3014C
:102840009091B401019751F48AA59BA599A788A7F7
:1028500008E010E097E0292E312C22C08CA56AA94F
:102860004FA10E941831882369F0EBA1FCA1EF2B46
:1028700011F4F60101C0F5016081C30170E0A80107
:102880000E942C070894E11CF11C0894A108B108CF
:102890000894C11CD11CFFA1F150FFA3FF3F51F6CA
:1028A0000F5F1F4F0830110564F45201CBA8DCA85C
:1028B00081E0E82EF12C27E02FA337E0301B3AAB64
:1028C000B9CF8DA59EA50E94060D80E00E94300A1A
:1028D0000894211C311C87E0281631040CF47FCFAA
:1028E000222433241AA219A266247724C301019654
:1028F000E9A1FAA1EF2B59F43C018430910541F490
:1029000021E030E03AA329A36624772401C03C01EA
:10291000C30113E0880F991F1A95E1F74BAC5CAC2B
:10292000481A590A00E010E0EFE1F0E04E0E5F1E99
:1029300021E030E02C0F3D1F280F391F39AB28ABA9
:1029400039C08091B3019091B401019751F48AA5E7
:102950009BA599A788A7B7E02B2E312C08E010E0A3
:1029600024C08CA56FA54E2D0E941831882369F0D4
:10297000E9A1FAA1EF2B11F4F50101C0F401808166
:1029800090E0B701A8010E942C070894C11CD11C3B
:102990000894E108F1080894810891080894A11CA2
:1029A000B11CF9E0CF16D10461F60F5F1F4F08305C
:1029B00011056CF44201A8A8B9A8A1E0CA2ED12C37
:1029C000F7E0EF2EF12C27E0201B2FA7BACF8DA523
:1029D0009EA50E94060D80E00E94300A0894211CEA
:1029E000311C37E0231631040CF480CF88A599A55B
:1029F000019699A788A7E8A5F9A52AA53BA5E217FE
:102A0000F3070CF4D8CDEC960FB6F894DEBF0FBEEA
:102A1000CDBFCF91DF911F910F91FF90EF90DF908D
:102A2000CF90BF90AF909F908F907F906F905F906E
:102A30004F903F902F9008956F927F928F929F9228
:102A4000AF92BF92CF92DF92EF92FF920F931F93BC
:102A5000CF93DF933C014B015A01CC24DD242CC0E1
:102A60000E94563C8C010E94563C7C010E94563CC0
:102A7000FC01C80168E070E00E94DE3B8C01C701E8
:102A800068E070E00E94DE3B9C01CF0168E070E0EE
:102A90000E94DE3BAC01C801B9010E942C072196BF
:102AA0008C169D06ECF6C5010E94060D80E00E9482
:102AB000300A0894C11CD11CC614D7041CF4C0E011
:102AC000D0E0EECFDF91CF911F910F91FF90EF906B
:102AD000DF90CF90BF90AF909F908F907F906F903E
:102AE0000895CF93DF93C1E0D0E085E090E0BE0190
:102AF00048EC50E00E941C152196C431D105A9F77D
:102B000085E090E0BE0148EC50E00E941C15219742
:102B1000B9F7DF91CF910895DF92EF92FF920F9373
:102B20001F93CF93DF938C0180E00E94300AC0E0B6
:102B3000D0E0DD24DA94780111C0F901E80FF91F23
:102B4000E950FE4FD082019688309105B1F7C70158
:102B50000E94060D2196C830D10549F080E090E032
:102B60009E0143E0220F331F4A95E1F7E6CFC801EB
:102B7000880F991F800F911F0E94060DC0E0D0E0C2
:102B800011C0F901E80FF91FE950FE4F10820196BC
:102B900088309105B1F7C7010E94060D2196C83013
:102BA000D10549F080E090E09E01A3E0220F331FA1
:102BB000AA95E1F7E6CFDF91CF911F910F91FF909A
:102BC000EF90DF9008954F925F926F927F929F9265
:102BD000AF92BF92CF92DF92EF92FF920F931F932B
:102BE000CF93DF93982E162F072F3A0180E00E9493
:102BF000300A212F302FC9016C01C0E0D0E057E02E
:102C0000452E512C35C06114710431F0F5018081DD
:102C1000A201481B510904C0F7018081482F50E0F0
:102C2000FAE79F1619F4CE01B8010DC089E798168E
:102C300021F4CE01BA01A80106C098E7991629F43B
:102C4000CA01B801AE010E942C070F5F1F4F089404
:102C5000A11CB11C0894E11CF11C0830110599F667
:102C60002196E8E0F0E0CE0EDF1EC830D10529F055
:102C70005601760100E010E0C6CFDF91CF911F91A1
:102C80000F91FF90EF90DF90CF90BF90AF909F900B
:102C90007F906F905F904F9008952F923F924F9248
:102CA0005F926F927F928F929F92AF92BF92CF92DC
:102CB000DF92EF92FF920F931F93DF93CF93CDB7E5
:102CC000DEB7C158D0400FB6F894DEBF0FBECDBFFF
:102CD000CF57DF4F8883C158D0402B013A014901BB
:102CE00071E4A72EB12CAC0EBD1EF50161E8C62E15
:102CF000D12CCC0EDD1E1192EC15FD05E1F700E0A4
:102D000010E01E010894211C311C81E088169104FA
:102D1000C9F414C00E94563C60E470E00E94DE3B9F
:102D2000E1E4F0E0EC0FFD1FE80FF91F808188233C
:102D300089F70F5F1F4F91E0908316C00034110593
:102D40004CF312C082E08816910471F4003411052E
:102D50005CF4E1E4F0E0EC0FFD1FE00FF11F808177
:102D60008F5F80830F5F1F4FF501EE24FF2490815A
:102D7000892F8150863010F49F5F90838081873047
:102D800019F40894E11CF11C3196EC15FD0579F756
:102D9000D101F50180814114510419F097E0981B8D
:102DA000892F8C9331961196EC15FD0599F7C30187
:102DB0000E94060DCF57DF4F8881C158D040B10126
:102DC00040E050E00E94E31582B394E0892782BB83
:102DD00080E4E816F10409F098CFCF57DF4F0FB623
:102DE000F894DEBF0FBECDBFCF91DF911F910F9141
:102DF000FF90EF90DF90CF90BF90AF909F908F901B
:102E00007F906F905F904F903F902F9008953F92EA
:102E10004F925F926F927F928F929F92AF92BF92EA
:102E2000CF92DF92EF92FF920F931F93DF93CF9396
:102E3000CDB7DEB7C058D0400FB6F894DEBF0FBE96
:102E4000CDBF382E2B015A01490100E010E06E0180
:102E50000894C11CD11CA1E4EA2EF12CEC0EFD1E3D
:102E6000F601E00FF11F10820E94563CF701E00FBF
:102E7000F11F68E070E00E94DE3B80830F5F1F4F10
:102E80000034110569F700E010E06E010894C11CE0
:102E9000D11CF1E4EF2EF12CEC0EFD1E1AC0D7016F
:102EA000F60190818C91981710F49F5F9083319672
:102EB0001196EE15FF05A9F7832DB601A4010E9416
:102EC000E315C2010E94060D0F5F1F4F0830110568
:102ED0004CF48091B3019091B401019701F708E09F
:102EE00010E0EACF8091B3019091B401F70147E07F
:102EF0009E012F573F4F40838130910521F031963D
:102F0000E217F307C1F7C5010E94060D00E010E0CB
:102F1000E1E46E2E712C6C0E7D1E5E010894A11CE6
:102F2000B11C1FC0F601D70180819C91891710F454
:102F30008F5F80838081981710F481508083319651
:102F40001196E615F70581F7832DB501A4010E94BE
:102F5000E315C2010E94060D0F5F1F4F08301105D7
:102F60004CF48091B3019091B4010197D9F608E037
:102F700010E0EACFC058DF4F0FB6F894DEBF0FBEA7
:102F8000CDBFCF91DF911F910F91FF90EF90DF9018
:102F9000CF90BF90AF909F908F907F906F905F90F9
:102FA0004F903F900895AC01FC01DB0120E030E040
:102FB0008091B3019091B401019799F090818C9127
:102FC000981710F49F5F908390818C91891710F46B
:102FD000915090832F5F3F4F3196119620343105E9
:102FE00039F78AE7BA0140E050E00E94E3150895FE
:102FF0002F923F924F925F926F927F928F929F9209
:10300000AF92BF92CF92DF92EF92FF920F931F93F6
:10301000DF93CF93CDB7DEB7C058D0400FB6F8944A
:10302000DEBF0FBECDBF3C017B0100E010E05E01C2
:103030000894A11CB11C24E0922E91E4C92ED12C3D
:10304000CC0EDD1EF501E00FF11F90820E94563C70
:10305000F601E00FF11F68E070E00E94DE3B808324
:103060000F5F1F4F0034110569F700E010E081E4A5
:10307000A82EB12CAC0EBD1E6E010894C11CD11C33
:103080002701C601B5014AE70E94D317C2010E9479
:10309000060D0F5F1F4F0830110599F75701AA0C55
:1030A000BB1CAA0CBB1CCC24DD24B1E48B2E912CC0
:1030B0008C0E9D1E1E010894211C311C41C0809164
:1030C000B3019091B401019709F43EC000E010E013
:1030D000C101B4014AE70E94D317C2010E94060D44
:1030E0000F5F1F4F0830110599F7C5010E94060DAB
:1030F000EE24FF240E94563C8C010E94563C9C0109
:10310000C80160E470E00E94DE3BF401E80FF91FA3
:10311000C90168E070E00E94DE3B80838091B301CA
:103120009091B401019711F4630107C00894E11C68
:10313000F11C80E2E816F104E9F60894C11CD11CE8
:10314000C614D7040CF4BBCFC058DF4F0FB6F894A9
:10315000DEBF0FBECDBFCF91DF911F910F91FF90CA
:10316000EF90DF90CF90BF90AF909F908F907F9027
:103170006F905F904F903F902F9008958F929F9205
:10318000AF92BF92CF92DF92EF92FF920F931F9375
:10319000CF93DF934C018B016130710511F480E016
:1031A00001C08FEF0E94300AC0E0D0E00E94563C80
:1031B00068E070E00E94DE3BB82EA92E0E94563CCB
:1031C00068E070E00E94DE3BD82EC92E0E94563C7B
:1031D00068E070E00E94DE3BF82EE92E0115110533
:1031E00059F48B2D9A2D6D2D7C2D4F2D5E2D0E9427
:1031F000A7088130D9F40DC001301105B9F48B2D29
:103200009A2D6D2D7C2D4F2D5E2D0E94A7088823B1
:1032100069F48B2D9A2D6D2D7C2D4F2D5E2D9801EF
:103220000E94CA08C4010E94060D219681E0CF3F8A
:10323000D8070CF4BBCFDF91CF911F910F91FF9076
:10324000EF90DF90CF90BF90AF909F908F900895B8
:103250006F927F928F929F92AF92BF92DF92EF9286
:10326000FF920F931F93CF93DF933C015B014A01C1
:1032700080E00E94300A00E010E01FC00E94563C2F
:1032800062E070E00E94DE3BAC0133E0440F551F6A
:103290003A95E1F7481B590BC801BE010E942C0763
:1032A0002196C830D10551F70F5F1F4F0830110527
:1032B00021F4DD24EE24FF2430C0C0E0D0E0DECFD6
:1032C0000E94563CEC010E94563C68E070E00E946F
:1032D000DE3B082F8E1501F1CE0168E070E00E9400
:1032E000DE3B182F8D15C1F090E0602F70E040E0BC
:1032F00050E00E94A708882321F0812F602F40E032
:1033000003C0812F602F47E095010E94B00FC401D8
:103310000E94060DD12EE02EF3948F2D90E086159D
:10332000970574F2DF91CF911F910F91FF90EF906D
:10333000DF90BF90AF909F908F907F906F90089597
:10334000EF92FF920F931F93CF93DF9380E00E9441
:10335000300A00E010E04FEEE42E42E0F42E47C0C9
:1033600080E00E94300ACE010E94060D8FEF0E947D
:10337000300A84E690E00E94060DCE0166EF7FEFF2
:103380000E94DE3B88EE93E00E94DE3B6F5070406F
:10339000C60FD71F1C161D061CF388EE93E00E9473
:1033A000060DCEEED2E080E00E94300AC7018C1BF1
:1033B0009D0B0E94060D8FEF0E94300A84E690E07C
:1033C0000E94060DCE0166EF7FEF0E94DE3B88EE85
:1033D00093E00E94DE3B6F507040C60FD71F1C1653
:1033E0001D060CF30F5F1F4F0230110519F0CEEED2
:1033F000D2E0B6CFDF91CF911F910F91FF90EF9068
:1034000008952F923F924F925F926F927F928F9288
:103410009F92AF92BF92CF92DF92EF92FF920F9363
:103420001F93DF93CF93CDB7DEB72E970FB6F894E7
:10343000DEBF0FBECDBF9A8389837C836B835E839F
:103440004D8338872F831A8709874F5F5F4F21F499
:1034500067E0262E312C02C02224332459E0852E29
:10346000912C89819A81881A990A0E94563CB4014C
:103470000E94DE3B7C010E94563CB4010E94DE3B70
:103480002C01662477248FC00E94563C8C010E9438
:10349000563C9C010894E108F108C80163E070E023
:1034A0000E94DE3B5701A80EB91E0894E11CF11CD6
:1034B0001A141B041CF4A814B9040CF05701089446
:1034C00041085108C90163E070E00E94DE3B6201DF
:1034D000C80ED91E0894411C511C1C141D041CF458
:1034E000C814D9040CF062018B816D817E810E9429
:1034F000150D1E861D863BC08091B3019091B401CD
:10350000019739F46F807884E981FA81FE87ED872D
:1035100029C02B813C812A37310521F4C201B70132
:10352000A10114C08B819C818937910521F4C201CE
:10353000B101A7010BC0EB81FC81E837F10541F433
:10354000A8014A0D5B1DC1016B857C850E942C077B
:103550000F5F1F4F0894E11CF11C29813A8102176B
:10356000130754F28D859E8501969E878D87ED8584
:10357000FE8529813A81E217F30764F4760100E0C1
:1035800010E0EC0DFD1DFC87EB874D845E844A0C3A
:103590005B1CE3CF89859A850E94060D0894611C07
:1035A000711C750126018F819885681679060CF4C7
:1035B0006BCF2E960FB6F894DEBF0FBECDBFCF9166
:1035C000DF911F910F91FF90EF90DF90CF90BF9010
:1035D000AF909F908F907F906F905F904F903F90B3
:1035E0002F900895AF92BF92CF92DF92EF92FF9209
:1035F0000F931F93CF93DF935C01CC24DD2448C04D
:103600008091B3019091B401019709F445C00E94E3
:10361000563C64E070E00E94DE3BEC01EE24FF24A7
:1036200022C00E94563C8C010E94563C9C01C8015D
:1036300068E070E00E94DE3BFC01C90168E070E0D8
:103640000E94DE3BBC01CF0147E050E00E942C0706
:103650008091B3019091B401019711F4650106C006
:103660000894E11CF11CEC16FD06DCF288EE93E0F8
:103670000E94060D8AE76FEF7FEF0E94150D809183
:10368000B3019091B401019739F00894C11CD11C89
:10369000CA14DB040CF4B4CFDF91CF911F910F91CA
:1036A000FF90EF90DF90CF90BF90AF9008954F9232
:1036B0005F926F927F928F929F92AF92BF92CF92C2
:1036C000DF92EF92FF920F931F93DF93CF9300D07F
:1036D00000D00F92CDB7DEB76C013E010894611C9B
:1036E000711CE0E84E2E512C4BC0822FB3010E947A
:1036F0005531EE24FF2426C09201002E02C03595DC
:1037000027950A94E2F7F401808190E02823392379
:10371000232B61F087E090E0B501A8010E942C07FF
:1037200086E090E0B501A8010E942C070F5F1F4FB3
:103730000830110509F70894E11CF11CF5E0EF16BB
:10374000F10459F000E010E043018E0C9F1C72E080
:10375000A72EB12CAE0CBF1CCFCF00E010E088EE3E
:1037600093E00E94060D88E76FEF7FEF0E94150D32
:103770000F5F1F4F0630110591F70894C11CD11C33
:10378000F6012081222339F08091B3019091B40198
:10379000892B09F4AACF00E010E088EE93E00E94A4
:1037A000060D88E76FEF7FEF0E94150D0F5F1F4F2B
:1037B0000830110591F70F900F900F900F900F9018
:1037C000CF91DF911F910F91FF90EF90DF90CF90FD
:1037D000BF90AF909F908F907F906F905F904F9031
:1037E0000895AF92BF92CF92DF92EF92FF920F9324
:1037F0001F93CF93DF935C016B01EE24FF245CC029
:103800008091B3019091B401019709F459C0C0E0CF
:10381000D0E08091B3019091B401019709F44CC0BC
:103820008AE76FEF7FEF0E94150D80E090E0BE0108
:1038300047E050E00E942C07CE0167E070E047E0CF
:1038400050E00E942C0707E010E00C1B1D0B87E0E6
:1038500090E0B80147E050E00E942C07C80160E00A
:1038600070E047E050E00E942C0780E090E0B80153
:1038700047E050E00E942C07C80167E070E047E095
:1038800050E00E942C0787E090E0BE0147E050E046
:103890000E942C07CE0160E070E047E050E00E94FB
:1038A0002C07C6010E94060D0894E11CF11C21960C
:1038B000C730D10509F0ADCFAE14BF040CF0A0CFD6
:1038C000DF91CF911F910F91FF90EF90DF90CF90FC
:1038D000BF90AF900895AF92BF92CF92DF92EF92D8
:1038E000FF920F931F93CF93DF935C016B01EE2444
:1038F000FF2444C08091B3019091B401019709F471
:1039000041C0C0E0D0E08091B3019091B401019733
:10391000A9F18AE76FEF7FEF0E94150D80E090E03C
:10392000BE0147E050E00E942C07CE0167E070E046
:1039300047E050E00E942C0707E010E00C1B1D0B35
:1039400087E090E0B80147E050E00E942C07C801F2
:1039500060E070E047E050E00E942C07C6010E9442
:10396000060D8091B3019091B401019739F008944C
:10397000E11CF11C2196C730D10529F6AE14BF0415
:103980000CF0B8CFDF91CF911F910F91FF90EF9086
:10399000DF90CF90BF90AF9008952F923F924F92BB
:1039A0005F926F927F928F929F92AF92BF92CF92CF
:1039B000DF92EF92FF920F931F93DF93CF93CDB7D8
:1039C000DEB7E8970FB6F894DEBF0FBECDBF9AAB57
:1039D00089AB7CAB6BAB222E80E00E94300A0E9448
:1039E000563C68E070E00E94DE3B7C013C010E9496
:1039F000563C68E070E00E94DE3B8C012C010E9486
:103A0000563C68E070E00E94DE3B382F292F6C01A5
:103A1000FE013196CE01C1969EAB8DAB0083118322
:103A2000E282F3823483258336968DA99EA9E81716
:103A3000F907A1F7F1E0EF2EF12CE1E08E2E912CA9
:103A400071E0A72EB12CFE013B97F8AFEFAB4BC254
:103A50000E94563C63E070E00E94DE3B892B71F5CA
:103A60000E94563C63E070E00E94DE3B009759F4F0
:103A70000E94563C63E070E00E94DE3B7C010894AB
:103A8000E108F1081BC08130910559F40E94563CB1
:103A900063E070E00E94DE3B4C01089481089108CD
:103AA0000DC08230910551F40E94563C63E070E0F5
:103AB0000E94DE3B5C010894A108B108FFEFEF16FD
:103AC000FFEFFF0699F44114510481F40E94563C23
:103AD00063E070E00E94DE3B019719F0EE24FF24C2
:103AE00003C061E0E62EF12C11E001C010E08FEF81
:103AF00088168FEF980699F46114710481F40E947E
:103B0000563C63E070E00E94DE3B019719F0882488
:103B1000992403C051E0852E912C01E001C000E002
:103B20009FEFA9169FEFB906A1F4C114D10489F43F
:103B30000E94563C63E070E00E94DE3B019719F062
:103B4000AA24BB2403C041E0A42EB12C3324339417
:103B500001C03324E1E0EE16F10499F4F7E04F16CA
:103B6000510479F40E94563C63E070E00E94DE3B11
:103B7000019719F0EE24FF2403C0EE24EA94FE2CF2
:103B800011E081E08816910499F497E069167104B8
:103B900079F40E94563C63E070E00E94DE3B01979E
:103BA00019F08824992403C088248A94982C01E071
:103BB000E1E0AE16B104A1F4F7E0CF16D10481F430
:103BC0000E94563C63E070E00E94DE3B019719F0D2
:103BD000AA24BB2403C0AA24AA94BA2C3324339465
:103BE000112351F18114910491F487E06816710456
:103BF00039F06114710441F00E94563C80FD04C00C
:103C000088248A94982C03C031E0832E912CA1142F
:103C1000B10491F497E0C916D10439F0C114D1046C
:103C200041F00E94563C80FD04C0AA24AA94BA2CFC
:103C300003C021E0A22EB12C002351F1E114F104C4
:103C400091F4E7E04E16510439F04114510441F06B
:103C50000E94563C80FD04C0EE24EA94FE2C03C072
:103C600091E0E92EF12CA114B10491F4F3E0CF1608
:103C7000D10439F0C114D10441F00E94563C80FDBA
:103C800004C0AA24AA94BA2C03C081E0A82EB12CA7
:103C9000332061F18114910491F487E06816710476
:103CA00039F06114710441F00E94563C80FD04C05B
:103CB00088248A94982C03C001E0802E912CE11472
:103CC000F104A1F497E04916510421F4EE24EA949A
:103CD000FE2C29C04114510421F411E0E12EF12CF5
:103CE00008C00E94563C80FF04C151C041145104D9
:103CF000B1F46114710441F4C114D10451F1E7E04D
:103D0000CE16D10461F425C0F7E06F16710439F4C2
:103D1000C114D104F1F087E0C816D104D1F097E0C6
:103D20004916510461F56114710441F4C114D104C0
:103D300081F0E7E0CE16D10411F50BC0F7E06F1665
:103D40007104E9F4C114D10421F087E0C816D1044C
:103D5000B1F40E94563C63E070E00E94DE3B0097A5
:103D600019F4EE24FF240BC08130910519F4882446
:103D7000992405C08230910511F4AA24BB24411472
:103D8000510441F49FEFE9169FEFF90619F4B1E0F1
:103D9000EB2EF12C6114710441F4EFEF8E16EFEF6E
:103DA0009E0619F4A1E08A2E912CC114D10441F48D
:103DB000FFEFAF16FFEFBF0619F4F1E0AF2EB12C05
:103DC00087E04816510439F491E0E916F10419F43A
:103DD000EE24EA94FE2CE7E06E16710439F4F1E06B
:103DE0008F16910419F488248A94982C87E0C816B9
:103DF000D10439F491E0A916B10419F4AA24AA94C3
:103E0000BA2C4E0C5F1C680C791CCA0CDB1CE1E060
:103E10002E1679F4C201B301A6010E942C078BA9CA
:103E20009CA90E94060DC201B301A6010E94DF06F3
:103E300055C0F2E02F1651F4C201B301A6010E9451
:103E4000D3088BA99CA90E94060D48C083E02816C0
:103E500009F044C0FE01B5968081918197838683E5
:103E600082819381918780878481958193878287DE
:103E700036978FA998ADE817F90771F75A824982EA
:103E80007C826B82DE82CD828E010F5F1F4FF80134
:103E90006281738144815581808191810E942C07C8
:103EA0000A5F1F4F8DA99EA90817190781F78BA9D3
:103EB0009CA90E94060D8E010F5F1F4FF8016281C1
:103EC000738144815581808191810E94DF060A5F60
:103ED0001F4F8DA99EA90817190781F7E9A9FAA90B
:103EE0003197FAABE9AB89A99AA9892B09F0B0CD32
:103EF00004C0EE24EA94FE2C4DCFE8960FB6F89459
:103F0000DEBF0FBECDBFCF91DF911F910F91FF900C
:103F1000EF90DF90CF90BF90AF909F908F907F9069
:103F20006F905F904F903F902F900895CF92DF92C7
:103F3000EF92FF920F931F93CF93DF93F82E6B01B5
:103F4000EA0180E00E94300A8F2D90E00E940B0968
:103F500010E10E94563C64E070E00E94DE3BE82ED7
:103F60000E94563C64E070E00E94DE3B082F8E2DDC
:103F700090E0602F70E04F2D50E00E94A70888234A
:103F800041F38E2D602F4F2D96010E94B00FCE0170
:103F90000E94060D1150E9F6DF91CF911F910F910C
:103FA000FF90EF90DF90CF9008958F929F92AF9205
:103FB000BF92CF92DF92EF92FF920F931F93CF9316
:103FC000DF935C016B0180E00E94300AC0E0D0E02A
:103FD000A3E08A2E912C8091B3019091B4010197B6
:103FE000F1F01C141D0414F0CE0103C0C4018C1B9D
:103FF0009D0BAC014C5F5F4F7401E81AF90ACA01CE
:10400000BA01970187010E94290BC5010E94060D84
:1040100080E00E94300A2196C430D105E1F6DF919C
:10402000CF911F910F91FF90EF90DF90CF90BF90B5
:10403000AF909F908F9008952F923F924F925F92F2
:104040006F927F928F929F92AF92BF92CF92DF92A8
:10405000EF92FF920F931F93DF93CF9300D0CDB7D2
:10406000DEB73C014B015A8349831901AA24BB24C2
:104070000EEF402E0FEF502E460E571E5CC0809163
:10408000B3019091B401019709F459C0CC24DD2407
:104090008091B3019091B401019711F4530148C08C
:1040A00088E0C816D10434F417E0E12EF12CEC18A6
:1040B000FD0806C0B8EFEB2EBFEFFB2EEC0CFD1C8D
:1040C00080E00E94300A81E090E00E94060DF894A2
:1040D00080E090E060E070E040E050E09701870110
:1040E0000E94290BE981FA811E161F0614F40E9412
:1040F000C90DF1E08F16910421F083E08816910438
:1041000011F40E946A0E92E04916510410F40E94C4
:104110000B0E7894C1010E94060D80E00E94300AC7
:104120000894C11CD11CE0E1CE16D10409F0B0CF37
:104130000894A11CB11CA614B7040CF4A0CF0F90D6
:104140000F90CF91DF911F910F91FF90EF90DF9033
:10415000CF90BF90AF909F908F907F906F905F9027
:104160004F903F902F900895EF92FF920F931F93DF
:10417000E82EF62E072F10E08E2D612F0E94BC092D
:104180008F2D902F0E94060D1F5F1830A9F717E0A2
:1041900080E00E94300A8E2D612F0E94BC098F2D75
:1041A000902F0E94060D115098F71F910F91FF90CC
:1041B000EF900895EF92FF920F931F93E82EF62E43
:1041C000072F10E080E00E94300A8E2D612F0E94A0
:1041D000BC098F2D902F0E94060D1F5F183091F79C
:1041E00017E080E00E94300A8E2D612F0E94BC09EA
:1041F0008F2D902F0E94060D115098F71F910F914F
:10420000FF90EF900895AF92BF92CF92DF92EF921E
:10421000FF920F931F93CF93DF93C0E0D0E0BE01D6
:1042200083E0759567958A95E1F7882777FD8095F6
:10423000982F0E94D4397B018C010E94243B9B0162
:10424000AC010E94CE3820E030E040E650E40E940D
:10425000CE380E94A1395B016C01C801B7010E94F0
:1042600036399B01AC010E94CE3820E030E040E6B8
:1042700050E40E94CE380E94A1397B018C01C50117
:10428000B70141E050E00E942C07C501B70141E0B1
:1042900050E00E942C0788EE93E00E94060D80E01B
:1042A0000E94300A219683E0C83ED80709F0B7CFB4
:1042B000DF91CF911F910F91FF90EF90DF90CF9002
:1042C000BF90AF9008952F923F924F925F926F925E
:1042D0007F928F929F92AF92BF92CF92DF92EF9296
:1042E000FF920F931F93DF93CF93CDB7DEB7C555E2
:1042F000D0400FB6F894DEBF0FBECDBF5C0166960E
:104300007FAF6EAF6697DE011196E3EAF0E080E1E1
:1043100001900D928150E1F7CE0141960E949738AD
:10432000C501880F991F880F991F64969FAF8EAFA4
:10433000649744245524B0C08091B3019091B40196
:10434000019709F4B1C080E00E94300A88249924C2
:1043500084C0F1018081B201680F711DCE014196C8
:104360000E945B388C539F4F61E370E00E94DE3BFC
:10437000062F10E0C401B501A8010E942C07C3015B
:10438000B501A8010E942C0747E0C42ED12CCA1801
:10439000DB08C401B601A8010E942C07C301B601C5
:1043A000A8010E942C0737E0E32EF12CE01AF10A55
:1043B000C401B501A7010E942C07C301B501A701E3
:1043C0000E942C07C401B601A7010E942C07C3015B
:1043D000B601A7010E942C07C401B801A5010E94E3
:1043E0002C07C301B801A5010E942C07C401B80124
:1043F000A6010E942C07C301B801A6010E942C0748
:10440000C401B701A5010E942C07C301B701A50192
:104410000E942C07C401B701A6010E942C07C3010A
:10442000B701A6010E942C078091B3019091B401BD
:10443000019761F00894A11CB11C84E090E0280E63
:10444000391E94E0A916B10409F083CF0894811CA9
:10445000911CE4E08E16910479F021E0222E312C9B
:104460002C0E3D1E280C391CAA24BB2497E0692E73
:10447000712C681879086DCF66968EAD9FAD6697E2
:104480000E94060D8091B3019091B401019761F0F3
:1044900084E090E0480E591E6496EEADFFAD64973F
:1044A0004E165F060CF448CFCB5ADF4F0FB6F89488
:1044B000DEBF0FBECDBFCF91DF911F910F91FF9057
:1044C000EF90DF90CF90BF90AF909F908F907F90B4
:1044D0006F905F904F903F902F9008952F923F9252
:1044E0004F925F926F927F928F929F92AF92BF9204
:1044F000CF92DF92EF92FF920F931F93DF93CF93B0
:10450000CDB7DEB7C555D0400FB6F894DEBF0FBEAD
:10451000CDBF6C0166967FAF6EAF6697DE011196D8
:10452000E3EBF0E080E101900D928150E1F7CE01E4
:1045300041960E949738C601880F991F880F991FCE
:1045400064969FAF8EAF64974424552477E0272E5E
:10455000312C83C08091B3019091B401019709F48B
:1045600084C080E00E94300AAA24BB2459C0F30111
:104570008081B201680F711DCE0141960E945B38A7
:104580008C539F4F61E370E00E94DE3B062F10E0EA
:10459000C501B601A8010E942C07C401B601A801FB
:1045A0000E942C077101EC18FD08C501B701A80194
:1045B0000E942C07C401B701A8010E942C07C10169
:1045C000801B910B8C01C501B601A8010E942C072C
:1045D000C401B601A8010E942C07C501B701A801BA
:1045E0000E942C07C401B701A8010E942C078091EA
:1045F000B3019091B401019761F00894C11CD11CE2
:10460000E4E0F0E06E0E7F1EF4E0CF16D10409F076
:10461000AECF0894A11CB11C84E0A816B10469F0C7
:1046200061E0662E712C6C0E7D1E6A0C7B1CCC2406
:10463000DD2441018A189B089ACF8091B3019091A3
:10464000B401019791F066968EAD9FAD66970E947A
:10465000060DE4E0F0E04E0E5F1E64968EAD9FAD59
:104660006497481659060CF475CFCB5ADF4F0FB636
:10467000F894DEBF0FBECDBFCF91DF911F910F9198
:10468000FF90EF90DF90CF90BF90AF909F908F9072
:104690007F906F905F904F903F902F9008952F9252
:1046A0003F924F925F926F927F928F929F92AF92C2
:1046B000BF92CF92DF92EF92FF920F931F93DF93FF
:1046C000CF93CDB7DEB7C555D0400FB6F894DEBF57
:1046D0000FBECDBF6C0166967FAF6EAF6697DE01F1
:1046E0001196E3ECF0E080E101900D928150E1F74A
:1046F000CE0141960E949738C601880F991F880FF6
:10470000991F64969FAF8EAF649744245524A7E009
:104710002A2E312C83C08091B3019091B40101976E
:1047200009F484C080E00E94300AAA24BB2459C046
:10473000F3018081B201680F711DCE0141960E9484
:104740005B388C539F4F61E370E00E94DE3B062F85
:1047500010E0C501B801A6010E942C07C401B801F0
:10476000A6010E942C077101EC18FD08C501B801D3
:10477000A7010E942C07C401B801A7010E942C07C1
:10478000C101801B910B8C01C501B801A6010E94DB
:104790002C07C401B801A6010E942C07C501B8016D
:1047A000A7010E942C07C401B801A7010E942C0791
:1047B0008091B3019091B401019761F00894C11CFC
:1047C000D11CE4E0F0E06E0E7F1EF4E0CF16D104C1
:1047D00009F0AECF0894A11CB11C84E0A816B10466
:1047E00069F0F1E06F2E712C6C0E7D1E6A0C7B1C43
:1047F000CC24DD2441018A189B089ACF8091B30113
:104800009091B401019791F066968EAD9FAD669739
:104810000E94060DE4E0F0E04E0E5F1E64968EAD41
:104820009FAD6497481659060CF475CFCB5ADF4FED
:104830000FB6F894DEBF0FBECDBFCF91DF911F91B1
:104840000F91FF90EF90DF90CF90BF90AF909F902F
:104850008F907F906F905F904F903F902F90089532
:104860002F923F924F925F926F927F928F929F9280
:10487000AF92BF92CF92DF92FF920F931F93DF937D
:10488000CF93CDB7DEB7C355D0400FB6F894DEBF97
:104890000FBECDBF6C0164967FAF6EAF6497DE0133
:1048A0001196E3EDF0E080E101900D928150E1F787
:1048B000CE0141960E9497381601220C331C220C1F
:1048C000331C662477246AC08091B3019091B401AF
:1048D000019709F467C080E00E94300AAA24BB2433
:1048E0003EC0F4018081B301680F711DCE01419675
:1048F0000E945B388C539F4F61E370E00E94DE3B67
:10490000F62EC501B6014F2D50E00E942C07C201C2
:10491000B6014F2D50E00E942C0707E010E00C1963
:104920001D09C501B8014F2D50E00E942C07C2019E
:10493000B8014F2D50E00E942C070894C11CD11CD7
:1049400084E090E0880E991E94E0C916D10449F6DF
:104950000894A11CB11CE4E0AE16B10479F001E0AA
:10496000802E912C8C0E9D1E8A0C9B1CCC24DD2449
:1049700017E0412E512C4A185B08B3CF8091B30148
:104980009091B401019771F064968EAD9FAD6497DC
:104990000E94060D84E090E0680E791E6214730494
:1049A0000CF492CFCD5ADF4F0FB6F894DEBF0FBE96
:1049B000CDBFCF91DF911F910F91FF90DF90CF90EE
:1049C000BF90AF909F908F907F906F905F904F902F
:1049D0003F902F9008952F923F924F925F926F9247
:1049E0007F928F929F92AF92BF92CF92DF92EF927F
:1049F000FF920F931F93DF93CF9300D000D0CDB7DA
:104A0000DEB7C82EB92E362E2DB73EB73A8329838E
:104A100087E0689FC00111244DB75EB7481B590B52
:104A20000FB6F8945EBF0FBE4DBF8DB69EB608940C
:104A3000811C911CDD242BC0ED2CFF248701B3E0E9
:104A4000000F111FBA95E1F70E191F09080D191D66
:104A5000D801DC9211961C920E94563C8F70F8018E
:104A60008383C70181709070880F991F880F991FE9
:104A70008483F2E0EF22FF24EE0CFF1CD801159690
:104A8000EC9215978D2D847016968C93D394D31435
:104A900098F28C2D9B2D9C012901E2E07E2E75E081
:104AA000272EE32DF0E0FC83EB83F0C080E00E9432
:104AB000300A64016624AA24BB24A9C07401EA0C4C
:104AC000FB1CD70111968C91882351F18D5F8730A3
:104AD00009F486E0F701E80FF11DD70112969C91C9
:104AE00091508081980F9083992319F0943009F0A8
:104AF00070C0F6018081D70111969C91119789278A
:104B0000808311961C920E94563C982F9F70F7014B
:104B10009383F1E07F1609F05CC0D6018C9159C0F7
:104B200087010D5F1F4FD70113968C911397882330
:104B300021F0815013968C934CC00E94563C63E048
:104B400070E00E94DE3BE1E0F0E002C0EE0FFF1FEC
:104B50008A95E2F75E2FD6014C914E2730E017C0C0
:104B6000832F90E0FC0163E0EE0FFF1F6A95E1F7F1
:104B7000E81BF90BE80DF91D2081421721F0818116
:104B80002827421719F4F801208250E03F5F3315BF
:104B900038F35523E1F0952F9D5F973009F496E0A7
:104BA000F701E90FF11D8081882321F0D7011296CA
:104BB0001C920DC022E0F701228331E0731639F414
:104BC000953028F0D6018C91843008F450E0F7013C
:104BD0005183D70114962C91149730E015960C91BF
:104BE000159710E01696EC91F0E0C901B801AF01FD
:104BF0002D5F3F4F0D5F1F4F33967F010E946A0A62
:104C00006394E7E0F0E0CE0EDF1EAE0EBF1E63142D
:104C100008F454CF80E293E00E94060DF2E07F1684
:104C200019F030E020E01EC00894410851084114FA
:104C3000510421F57724739421C0822F90E0FC0168
:104C400043E0EE0FFF1F4A95E1F7E81BF90BE80D73
:104C5000F91D808190E04B815C81841795070CF0F1
:104C600031E02F5F231548F38091B3019091B40197
:104C7000019799F0832F311181E0782E8091B30153
:104C80009091B401019749F0772039F08091B301F8
:104C90009091B401892B09F409CF89819A810FB6CB
:104CA000F8949EBF0FBE8DBF0F900F900F900F9086
:104CB000CF91DF911F910F91FF90EF90DF90CF90F8
:104CC000BF90AF909F908F907F906F905F904F902C
:104CD0003F902F9008952F923F924F925F926F9244
:104CE0007F928F929F92AF92BF92CF92DF92EF927C
:104CF000FF920F931F93DF93CF9300D000D000D08B
:104D0000CDB7DEB74C013A8329836230B0F444302A
:104D100030F4433011F4EE2406C0EE2408C04530D0
:104D200021F4E2E0EE2E81E003C072E0E72E80E0A5
:104D3000613009F48260FF2462C0643038F542308B
:104D400058F480E0633009F481E0413009F4826076
:104D5000EE24FF24F39453C0862F90E0840F911D1E
:104D6000079751F4633021F0EE24E394FF2432C01E
:104D7000EE24E394FF2434C0633021F4EE24E39462
:104D8000FF2436C0EE24E394FF2438C0842F90E043
:104D9000262F30E04230A0F4820F931F059741F494
:104DA000643019F062E0E62E13C052E0E52E16C022
:104DB000653019F442E0E42E19C032E0E32E1CC045
:104DC000820F931F079771F4643031F0EE24E3945F
:104DD000FF24F39481E013C0EE24E394FF24F394C2
:104DE00082E00DC0653031F4EE24E394FF24F394A7
:104DF00083E005C0EE24E394FF24F39480E004E014
:104E000010E090E09C01227030703C832B8321E005
:104E1000222E312C28223922FF2059F0C401B8015A
:104E20000E945B38C82EC401B8010E947F38D82E7A
:104E30000AC0C401B8010E945B38D82EC401B80171
:104E40000E947F38C82E80E00E94300AAA2488E0A1
:104E5000B82E4D2C55246C2C77242A2D30E0249D1F
:104E6000C001259D900D349D900D112468EA70E0DD
:104E70000E94DE3BC62E8B819C81892B19F097E026
:104E8000961BC92E269DC001279D900D369D900D25
:104E9000112468EA70E00E94DE3BD62E2114310412
:104EA00019F0E7E0E61BDE2E1E821D82EE2029F4BB
:104EB0008D819E816D2D70E00EC0F1E0EF1639F40A
:104EC0008D2D90E06C2D70E04D815E8106C08D2DA2
:104ED00090E06D817E814C2D50E00E942C078091E6
:104EE000B3019091B401019749F02D813E812F5F6C
:104EF0003F4F3E832D8328303105C1F68091B301A9
:104F00009091B401019721F0A394BA9409F0A5CF30
:104F10008091B3019091B401019751F089819A81F8
:104F20000E94060D0C5F1F4F0432110509F074CF6B
:104F300026960FB6F894DEBF0FBECDBFCF91DF919E
:104F40001F910F91FF90EF90DF90CF90BF90AF90A7
:104F50009F908F907F906F905F904F903F902F9099
:104F60000895BF92CF92DF92EF92FF920F931F931B
:104F7000DF93CF93CDB7DEB7C154D0400FB6F894CE
:104F8000DEBF0FBECDBFF82EE92E8E010F5F1F4F83
:104F9000C8010E9497382F2D3E2DC9016C01EE24C7
:104FA000B02E012F30C08091B3019091B4010197D0
:104FB00069F10E94563C66E070E00E94DE3BF82EEC
:104FC000282F30E08E2D90E08227932786709070F6
:104FD000892B39F4C901039666E070E00E94DE3B3C
:104FE000F82E8B2D902F6E2D4F2D24EF31E00E9447
:104FF0006B268091B3019091B401019739F0089428
:10500000C108D108EF2CC114D10469F6CF5BDF4F82
:105010000FB6F894DEBF0FBECDBFCF91DF911F91C9
:105020000F91FF90EF90DF90CF90BF9008952F9257
:105030003F924F925F926F927F928F929F92AF9228
:10504000BF92CF92DF92EF92FF920F931F93DF9365
:10505000CF93CDB7DEB7C954D0400FB6F894DEBFBA
:105060000FBECDBF24969FAF8EAF249726967FAFFD
:105070006EAF26972E010894411C511CC2010E945C
:10508000973866247724CAC08091B3019091B40107
:10509000019709F4CBC0830115950795C201B801AA
:1050A0000E945B387C01C201B8010E947F388C5499
:1050B0009F4F63E070E00E94DE3B8B0180E00E9426
:1050C000300AC7018C549F4F63E070E00E94DE3BC2
:1050D00088E0A82EB12CA61AB70AB8E08B2E912C26
:1050E00088E090E0801B910B2A969FAF8EAF2A97A5
:1050F0007501B7FE04C0EE24FF24EA18FB08EE9CFD
:105100001001EF9C300CFE9C300C1124C4016FE0A8
:1051100070E00E94DE3B27966FAF279728967FAFFF
:1051200028972A960EAD1FAD2A97A8E0CA2ED12C3B
:10513000A80117FF04C044275527401B510BE11459
:10514000F10431F44115510519F460E070E018C024
:105150009A012E0D3F1D35952795449FC001459F0F
:10516000900D549F900D1124820D931DB9010E9442
:10517000DE3BCB01820F931F63E070E00E94DE3BB9
:10518000660D771DC2010E945B389C01C6016FE06D
:1051900070E00E94DE3BFB01C9018C549F4F64E329
:1051A00070E00E94DE3BAB0127968FAD27972896D3
:1051B0009FAD2897BF010E942C078091B301909169
:1051C000B401019759F08FE090E0C80ED91E015F3D
:1051D0001F4F90E8C916D10409F0AACF8091B301FE
:1051E0009091B401019759F08FE090E0880E991EDC
:1051F000A80EB91E90E88916910409F079CF809124
:10520000B3019091B401019789F026968EAD9FADC0
:1052100026970E94060D0894611C711C24968EAD81
:105220009FAD2497681679060CF42ECFC75BDF4F2D
:105230000FB6F894DEBF0FBECDBFCF91DF911F91A7
:105240000F91FF90EF90DF90CF90BF90AF909F9025
:105250008F907F906F905F904F903F902F90089528
:105260002F923F924F925F926F927F928F929F9276
:10527000AF92BF92CF92DF92EF92FF920F931F9364
:10528000DF93CF93CDB7DEB76C970FB6F894DEBF40
:105290000FBECDBF9E8B8D8B788F6F8B2DB73EB79A
:1052A0003A8F298F80E00E94300A8F89988D880F6D
:1052B000991FAF89B88D8A0F9B1F33E0880F991F04
:1052C0003A95E1F7EDB7FEB7E81BF90B0FB6F89486
:1052D000FEBF0FBEEDBF8DB79EB701968B8F9C8F23
:1052E0001C8A1B8A0CC28091B3019091B401019772
:1052F00009F40DC20E94563C64E070E00E94DE3B5F
:10530000AA2797FDA095BA2FBC01CD010E94D439E0
:105310005B016C010E94563C64E070E00E94DE3B41
:10532000AA2797FDA095BA2FBC01CD010E94D439C0
:105330007B018C010E94563C62E070E00E94DE3BE3
:10534000AA2797FDA095BA2FBC01CD010E94D439A0
:1053500020E030E040EA50E40E94CE386F83788746
:1053600089879A87C601B50120E030E040E050E42B
:105370000E94CE386B837C838D839E83C801B701E6
:1053800020E030E040E050E40E94CE384B015C0168
:105390004424552424EFC22E21E0D22E2DC06B814F
:1053A0007C818D819E810E94A1397B018C01C50188
:1053B000B4010E94A1399B01AC01C701B901A2014E
:1053C0000E942C070894411C511CC6010E94060D26
:1053D00080E00E94300A24EF31E0C20ED31E80919B
:1053E000B3019091B401019739F48B8D9C8D9C0190
:1053F0002901222433249DC0B201882777FD80959E
:10540000982F0E94D4392F81388549855A850E946A
:10541000323987FDC4CFE9CF8091B3019091B401B7
:10542000019709F48CC08B819C81AD81BE81F20112
:1054300080839183A283B383D20114968D929D922F
:10544000AD92BC9217978F819885A985BA85808780
:105450009187A287B3870E94563C8C010E94563CDC
:105460007C010E94563C6C01C80168EC70E00E940F
:10547000DE3BAA2797FDA095BA2FBC01CD010E9463
:10548000D43920E030E048EC52EC0E94393920E079
:1054900030E040E85FE30E94CE38D2011C966D9365
:1054A0007D938D939C931F97C70168EC70E00E94D9
:1054B000DE3BAA2797FDA095BA2FBC01CD010E9423
:1054C000D43920E030E048EC52EC0E94393920E039
:1054D00030E040E85FE30E94CE38F201608B718BD0
:1054E000828B938BC60168EC70E00E94DE3BAA279A
:1054F00097FDA095BA2FBC01CD010E94D43920E0C0
:1055000030E048EC52EC0E94393920E030E040E8CD
:105510005FE30E94CE38D20154966D937D938D93B4
:105520009C9357970894211C311CE8E1F0E04E0E43
:105530005F1E2F89388D221633060CF46DCF1A8228
:1055400019828091B3019091B401019709F4CCC004
:10555000A981BA81BD01882777FD8095982F0E9487
:10556000D4392DEC3CEC4CEC5DE30E94CE3820E0CD
:1055700030E040EA51E40E9439390E946C3B7B01E3
:105580008C0120E030E040E251E40E94C13A20E08A
:1055900030E040E85FE30E94CE386F87788B898BDC
:1055A0009A8BC801B70120E030E040E05FE30E9441
:1055B000C13A6B877C878D879E872B8D3C8DC90177
:1055C0002C012224332475C0F201648575858685FB
:1055D00097852F85388949895A890E9439399B01D5
:1055E000AC01D2016D917D918D919C910E94CE383C
:1055F0003B014C01F2016083718382839383608954
:105600007189828993892F85388949895A890E94AD
:1056100039399B01AC01D20114966D917D918D9128
:105620009C9117970E94CE387B018C01F201648314
:1056300075838683978364897589868997892F8581
:10564000388949895A890E943939D20118962D9191
:105650003D914D915C911B970E94CE382B853C85E6
:105660004D855E850E94CD385B016C01F20160873B
:10567000718782879387C401B3010E94A1393B01DE
:105680004C01C801B7010E94A1397B018C01C60100
:10569000B5010E94A1399B01AC01C301B701A90169
:1056A0000E942C070894211C311C28E130E0420E96
:1056B000531E8F89988D281639060CF485CF80915A
:1056C000B3019091B401019779F088EE93E00E94C4
:1056D000060D80E00E94300AA981BA811196BA8332
:1056E000A983599709F02DCF8091B3019091B4010E
:1056F000019769F0EB89FC893196FC8BEB8B2B8948
:105700003C898D899E89281739070CF4ECCDA98D29
:10571000BA8D0FB6F894BEBF0FBEADBF6C960FB674
:10572000F894DEBF0FBECDBFCF91DF911F910F91D7
:10573000FF90EF90DF90CF90BF90AF909F908F90B1
:105740007F906F905F904F903F902F9008954F9271
:105750005F926F927F928F929F92AF92BF92CF9201
:10576000DF92EF92FF920F931F93CF93DF933C0151
:105770004B01AA24BB2457E0452E512C43C08091F5
:10578000B3019091B401019709F440C0C0E0D0E0AA
:105790008091B3019091B401019789F16201CC1A13
:1057A000DD0A80E090E060E070E0AE0127E030E0EC
:1057B00000E010E076010E94090C80E090E0BE015C
:1057C00040E050E027E030E08601EE24FF240E9414
:1057D000090CC4010E94060D89E761E070E00E9497
:1057E000150D8AE76FEF7FEF0E94150D88E76FEFC9
:1057F0007FEF0E94150D2196C830D10549F6089417
:10580000A11CB11CA614B7040CF4B9CFDF91CF9141
:105810001F910F91FF90EF90DF90CF90BF90AF90CE
:105820009F908F907F906F905F904F9008952F92F0
:105830003F924F925F926F927F928F929F92AF9220
:10584000BF92CF92DF92EF92FF920F931F93DF935D
:10585000CF93CDB7DEB739014A01A60195010E9469
:10586000CD385B016C01C401B3012D893E894F899C
:10587000588D0E94CD383B014C01C801B701298DDC
:105880003A8D4B8D5C8D0E94CD381B012C01C601D9
:10589000B501A60195010E94C13A7B018C01C401AA
:1058A000B301A40193010E94C13A9B01AC01C8015C
:1058B000B7010E94CE387B018C01C201B101A20167
:1058C00091010E94C13A9B01AC01C801B7010E943D
:1058D000CE380E942E3BCF91DF911F910F91FF9008
:1058E000EF90DF90CF90BF90AF909F908F907F9080
:1058F0006F905F904F903F902F9008952F923F921E
:105900004F925F926F927F928F929F92AF92BF92CF
:10591000CF92DF92EF92FF920F931F93DF93CF937B
:10592000CDB7DEB7A0970FB6F894DEBF0FBECDBFE0
:105930009A87898780E00E94300A1A82198216C1EC
:1059400029813A81B901882777FD8095982F0E9497
:10595000D4395B016C0120E030E048E452E40E945D
:1059600039397B018C01C8010E94243B20E030E0E2
:1059700040E250E40E94C13A20E030E040E650E4CA
:105980000E94CE386B8B7C8B8D8B9E8BB701C801B0
:105990000E94363920E030E040E250E40E94C13AF3
:1059A00020E030E040E650E40E94CE386F87788BEC
:1059B000898B9A8BC601B50120E030E040EF51E4BD
:1059C0000E9439390E9436399B01AC010E94CE38C1
:1059D00020E030E040E650E40E94CE386B877C87C0
:1059E0008D879E87C601B50120E030E046E153E493
:1059F0000E9439390E94243B20E030E040E050E42E
:105A00000E94CE386D837E838F83988780E00E94CA
:105A1000300A1C821B8298C08DB79EB708970FB6BC
:105A2000F8949EBF0FBE8DBF4DB65EB60894411C64
:105A3000511C6B8D7C8D8D8D9E8D0E94D4393B01C8
:105A40004C016F89788D898D9A8D0E94D4395B01C4
:105A50006C01AF8DB8A1BD01882777FD8095982F87
:105A60000E94D4397B018C012F85388949895A8954
:105A7000C901DA01F20180839183A283B3832B856C
:105A80003C854D855E85C901DA0184839583A683B3
:105A9000B783C401B301A6019501EB89FC896D8828
:105AA0004E885F01C62CD42C0E94172C7B018C01E0
:105AB0002DB73EB7285F3F4F0FB6F8943EBF0FBEDD
:105AC0002DBF2D813E814F8158850E94BD3A181609
:105AD000CCF46D817E818F81988520E030E040E8B4
